:020000023000CC
:10C00000803F002099F60300E1F60300E3F6030009
:10C010000000000000000000000000000000000020
:10C0200000000000000000000000000005E6030022
:10C030000000000000000000E7F60300E9F603003E
:10C04000EBF60300EBF60300EBF60300EBF6030060
:10C05000EBF6030000000000EBF60300EBF6030034
:10C06000EBF6030005E50300EBF60300EBF6030037
:10C07000EBF60300EBF60300EBF60300EBF6030030
:10C08000EBF60300E1C40300EBF60300EBF603005C
:10C09000A1C50300EBF6030049F60300EBF603002D
:10C0A000EBF60300EBF603000000000000000000C8
:10C0B0000000000000000000000000000000000080
:10C0C000402292029A1A92467047C046174B002BA4
:10C0D00000D1134B9D46FFF7F3FF00218B460F461F
:10C0E0001348144A121A00F065F80E4B002B00D0CA
:10C0F00098470D4B002B00D09847002000210400EA
:10C100000D000D48002802D00C4800E000BF00F0F0
:10C110002DF82000290002F013FB00F011F8C046B2
:10C12000000008000000000000000000803F002028
:10C13000682C002080340020000000000000000077
:10C14000084B10B50400002B02D0002100E000BF16
:10C15000054B1868836A002B00D09847200000F038
:10C1600031F8C0460000000094F8030070B50026C6
:10C170000C4D0D4C641BA410A64209D1002603F0FF
:10C180007DFB0A4D0A4C641BA410A64205D170BD6C
:10C19000B300EB5898470136EEE7B300EB589847E9
:10C1A0000136F2E7682C0020682C0020682C002063
:10C1B000682C002003008218934200D17047197048
:10C1C0000133F9E7FEE7C046BFF34F8F024B034A46
:10C1D000DA60BFF34F8FFEE700ED00E00400FA05E0
:10C1E00036DF704737DF704730B504000325100095
:10C1F0004B1CDB009BB228402A420DD1074D2A6020
:10C20000D218074B1A60074B1870074B1870074B72
:10C210001C80074B198030BD0720FCE7702C0020E4
:10C220006C2C0020682C0020782C0020742C00201E
:10C23000762C0020F0B5484B85B01B8800900D008F
:10C24000092001928B426CD3002302AAD371434B85
:10C2500004265B68DB05DC0D002B16D0103C0322A6
:10C2600021001140914060B2E3B224065BD50F205B
:10C270000340083B3A489B089B001B185B68CB4077
:10C280009B091A40D6B2012A5AD002ABD81DFFF73B
:10C29000A7FF02284DD172B6324B33491F78334B7A
:10C2A00009881C780020FFB2E2B28C4201D2013230
:10C2B000D0B287424BD01C7818780022C3B281429A
:10C2C00001D90133DAB2294B1A70012E10D062B6AF
:10C2D00002ABD879FFF786FF022302009A4303D00E
:10C2E00000221100FFF770FF214B04209C4218D060
:10C2F000204F019A3B68E6009B191A60009A002AB9
:10C3000022D0002D20D0144B2A0018881A4B444309
:10C3100018680099001903F0A1FA00203B689E19E3
:10C32000B58005B0F0BD8308C03314489B001B588E
:10C33000A5E70028B0D000221100FFF745FFABE7CA
:10C340001600A9E70A4CC2E700209880E9E7012E11
:10C35000F8D10420E5E7C046742C002000ED00E091
:10C3600018ED00E0782C0020762C0020682C0020AE
:10C37000FFFF0000702C00206C2C002000E100E08A
:10C3800070B5104B104A19781278914219D00F49A4
:10C3900018780D881C780021C0B2E2B2A54201D9FC
:10C3A0000132D1B219700A4BC2001B689B18094AAE
:10C3B000998812881B685043074A126810189847DA
:10C3C000DFE770BD782C0020682C0020762C002040
:10C3D000702C0020742C00206C2C00208022194B23
:10C3E0009202DA67D2218022174B520289005A50FA
:10C3F00040395A5001212F22596010000138C0469F
:10C40000C046C046C046C046C046C046C046C046FC
:10C41000C046C046C046F1D1996000230B491000C8
:10C420000B600138C046C046C046C046C046C04644
:10C43000C046C046C046C046C046C046F1D1044AC8
:10C440001370704704E100E000100140902C0020C0
:10C45000822C002010B5427803008078013290428F
:10C4600000D100221C780020944205D00A605A783E
:10C47000183042435868801810BD000010B5154BA5
:10C4800002205B68DB05DC0D002B1BD0103C032277
:10C4900021001140914060B2E3B2240613D50F2071
:10C4A0000340083B0C489B089B001B185B68CB4073
:10C4B0009B0913400020DAB2012B03D0033A531E2C
:10C4C0009A41501C10BD8308C03304489B001B5880
:10C4D000EDE7C04600ED00E018ED00E000E100E00F
:10C4E000F8B50024234B5C649C64DC641C655C60D0
:10C4F0009C60214B1E68731C35D024271F4B204A9B
:10C50000D558204B1B68ED1A2D022D0A1E4B7E4379
:10C51000196889194B68AB4212D8ED1AE4181B4B05
:10C520000E6A1A688B69C969002A1DD018009047E5
:10C53000002803D000221100FFF746FE731CE5D14E
:10C54000134A144B11781B788B4204D10133DBB2B0
:10C55000022B0CD0137013780F4A9B009C50802242
:10C560000E4B52035A60F8BD08009847E6E70023D7
:10C57000F0E7C046FC100140942C002004050000A8
:10C5800000100140902C00209C2C00207C2C0020CE
:10C590008D2C00208C2C0020842C0020FCE100E05D
:10C5A000F0B5C548C549047800200B688FB00893E2
:10C5B000C34BC44A1B6801900993137802909C42B4
:10C5C00012D00133DBB2022B00D1B5E01370137827
:10C5D000BD4A9B009B580193019A089B9B181B0224
:10C5E0001B0A0B600123029300242426B74B0C94F2
:10C5F0001B780393B64B039A1B6800920493B54BC8
:10C600001B689C46AD4B1B680A93B34B1B780D937C
:10C61000099B009A013AD2B20092FF2A00D08DE025
:10C620000C9A002A05D0AC4A0D991170A34A0A99B8
:10C630001160A34A002C00D013601368029A002AEC
:10C6400000D001E1099AD31A5A1E9341DBB202933A
:10C6500001235B4200939A4B1B6807939E4B0799FB
:10C660001B780893954B1B68019300230593039B4C
:10C67000013BDBB20393FF2B00D0EDE0059A904B1A
:10C68000002A00D019601A68079B934202D1029BCE
:10C69000002B4CD0531C00D17BE124235343634433
:10C6A0005B688E498E4D00934C59019A8D4EA21AAB
:10C6B00012023078120A033200281FD18020D127BD
:10C6C0004002BF00C851403FC851C0238027864860
:10C6D000BF025B00C750076001272F200F600138A1
:10C6E000C046C046C046C046C046C046C046C0461A
:10C6F000C046C046C046C046F1D13770009B934249
:10C7000000D21300019A9B18A8221B021B0AD20018
:10C710008B504A591B1B121B1202120A1B020332B6
:10C720001B0A9A4203D98022704B92025A6000225F
:10C73000694B1A700FB0F0BD107048E7009A049969
:10C74000D2008F188A5C7978914200D161E7182174
:10C750005143786801324118B878D2B2904200D182
:10C760000022087802280AD000210328EBD1581CA7
:10C77000E9D073436344197501241B6AF7E74968DC
:10C780000591714361440B91087D0028DBD01900AD
:10C7900006930AE035004D4365440795059D8D429B
:10C7A00000D1F9E006910799096A4D1CF2D12000E9
:10C7B00000210B9C21750400C5E7734363441B6A89
:10C7C000591C06D10121454CA16000210C900D900F
:10C7D0000A9107990D6A4C680699714361440D628C
:10C7E000691CE5D07543654469680C196C60DFE726
:10C7F00032005A4362445568019FBD4207D900295F
:10C8000001D02F490B60019BED1A556023E7019978
:10C810004019491B1569176A019154601475002D60
:10C8200008D00899D56009180902090A9160009991
:10C83000009311623B0002995A1CD9D1002900D102
:10C8400009E71F4A136006E701220021524208004F
:10C8500024260C000092EFE7039BDA00049B9A1851
:10C86000009B013344D1002756781378B34200D19E
:10C87000FDE6182058435468013320189478DBB241
:10C8800013709C4200D117700378012BEDD14468DE
:10C890002333634363441D7D002DE6D186689E608B
:10C8A000C668DE6006691E614069D8610898002884
:10C8B00025D09D6023E0C0468D2C0020902C0020C8
:10C8C000942C00208C2C0020842C0020982C0020FC
:10C8D000A02C00209C2C0020812C00200010014066
:10C8E00004050000822C002000E100E0FCE100E0F3
:10C8F00024230098434363440400186A0090986816
:10C90000019D294F451B2D02DE682D0ABD4219D815
:10C91000AD195D60002001269860D86001381E7551
:10C9200018624B1C0CD02425242365434B436544DB
:10C93000634468685F68B84228D8381A586029622A
:10C94000059621E0019D281A0002000AB04202D299
:10C95000301A5860DEE70020FBE7366AC01B0693FA
:10C96000771C0AD0330024265E43664477688742EA
:10C97000F3D33F1A77601E00069B68602420434370
:10C9800063442E621C620C00210069E70B000691D3
:10C99000E9E7FFF723FDCAE60599069DA94200D104
:10C9A0000BE7200015E7C046FEFF7F00F7B51C002F
:10C9B000032325000F00160001901D401C4253D197
:10C9C000002C51D0FFF70AFD284B089A24211A6049
:10C9D000274B1F70274B4F431C602B00E719BC42AD
:10C9E0003ED10322244B18211A702200234B183207
:10C9F0001C60100000237143626023706370A67096
:10CA000008345218A042F7D101211D4A4942116051
:10CA10001C4A802013701C4AC5241370C0221B4B73
:10CA2000400352009850A4001A590131FF318A4343
:10CA30001100C0220A431A51A1221860019914481A
:10CA4000D2008150043C1A5912491140C0221202EE
:10CA50000A431A51104BC258104B1A602800FEBDF1
:10CA6000237023752434BAE70725F7E77C2C0020D0
:10CA7000802C00209C2C0020982C0020A02C002032
:10CA8000942C00208C2C00208D2C002000E100E054
:10CA900000100140FF00FFFF04050000902C002063
:10CAA000F0B5104B05001B680820002B17D001388B
:10CAB000002A14D0002D12D000240B480778A7427A
:10CAC00001DC04200BE01E00243318002438007819
:10CAD000002805D1012371703370B2612C60F0BD64
:10CAE0000134ECE79C2C0020802C0020F0B51F4B7B
:10CAF00085B001921A6805000C000820002A32D087
:10CB00001B4B01381B78AB422DD904292BD9242388
:10CB10006B43D118D35C0130012B24D14B78270013
:10CB2000012B00D00027FFF7A9FC124BC0001E68A4
:10CB300003A936183000FFF78DFC03000420002BFA
:10CB400011D001220C491A700C4A5D608A580020ED
:10CB50009A60019ADC605A6180221F61039B520334
:10CB60007370074B5A6005B0F0BDC0469C2C002086
:10CB7000802C0020A02C00200010014004050000A3
:10CB8000FCE100E037B5154B04001A680820002AC4
:10CB900022D0134B01381B78A3421DD924236343B1
:10CBA0009B5C0130012B17D1FFF768FC0D4BC000D7
:10CBB0001D6801A92D182800FFF74CFC0300042074
:10CBC000002B09D002221A70802200205C60019B99
:10CBD00052036B70044B5A603EBDC0469C2C002033
:10CBE000802C0020A02C0020FCE100E010B5040007
:10CBF000082904D0002211001000FFF7E5FA23688D
:10CC00006068984710BD000007B5044A0090019184
:10CC100068460821FFF70EFB0EBDC046EDCB0300B2
:10CC200048DF704711DF704713DF704710B5FFF71B
:10CC3000F7FF002803D000221100FFF7C5FAFFF725
:10CC40009FFB034B1B78023B022BF0D810BDC04664
:10CC5000AC2C002010B5074B10001A78012A02D125
:10CC6000022900D11970002803D000221100FFF71B
:10CC7000ABFA10BDAC2C002010B50C4C1C212000D0
:10CC800001F069FB002803D000221100FFF79CFA95
:10CC900000231C222000064901F04EFB002803D08F
:10CCA00000221100FFF790FA10BDC046A42C00200E
:10CCB000B02C002007B50368013301D100200EBD60
:10CCC00001A800F051F9019B1A78012AF6D1588881
:10CCD000002806D09968C0239B010022986800F0C4
:10CCE00067F9019B5B88181A43425841C0B2E6E7D6
:10CCF00084B0F0B585B0C4B21D000A900D93030C4A
:10CD000003A80F0016000B910C92019300F02CF970
:10CD1000002C0AD1384B019AFF215A8001229D60D4
:10CD20001A701971354B1A7012E0012C17D1324B61
:10CD3000019ADF605A80BA1952199A60A5221A70B6
:10CD40005A321A710E9A1E615D619A612B4B1C70EA
:10CD5000FFF792FF05B0F0BC08BC04B01847032CE5
:10CD60000FD1039A244B1178197051889268598019
:10CD70009A60AA22DF601A711E615D61A93A1F4B99
:10CD8000D1E7022C18D1039A1B4B1178A5290DD19C
:10CD900000225A809A60FF321A70FF221A71002214
:10CDA000DA601A615A61154B0132BCE7197051887B
:10CDB000926859809A60F0E7052C0BD100F044FF8F
:10CDC000002803D000221100FFF7FEF903220B4BCD
:10CDD0001A70BFE7042C09D10022074B5A809A60D1
:10CDE000FF321A70039A12791A71B1E7062CB1D189
:10CDF0000422024BECE7C046B02C0020AC2C0020F3
:10CE00001FB50822002102A8FFF7D4F9074B0193B0
:10CE100001F062FA002806D1FF2305499B0201A810
:10CE20004B6001F075FA05B000BDC04655CC03005B
:10CE3000A42C002010B500F0F7F9041E04D100F076
:10CE400065FE0400FFF7F2FE200010BD10B5FFF7ED
:10CE5000E9FE002803D000221100FFF7B5F90E4BC0
:10CE60000120196800230D4C02009A400A4200D0AC
:10CE7000E2670133202BF7D1C024A401A068FFF79B
:10CE8000D3FE002803D000221100FFF79DF9A0680F
:10CE900000F070F810BDC04600E100E004E100E0E1
:10CEA00007B501A800F060F8019B01201A78A52AB7
:10CEB00004D01879AA3843425841C0B20EBD10B50B
:10CEC00000F0C4FB00281BD0642001F013F900F02F
:10CED00037FB002803D000221100FFF775F900F09E
:10CEE000B5FB002803D000221100FFF76DF900F018
:10CEF00073FB041E08D000221100FFF765F903E060
:10CF000000F085FB041EDFD1200010BD10B588B0F5
:10CF100003AC142200212000FFF74CF902232370F8
:10CF2000002303980499059A0093069BFFF7E0FEFF
:10CF3000FFF77CFE002008B010BD13B5040001A867
:10CF400000F012F8019B1A7822705A8862809A6861
:10CF5000A2601A792271DA68E2601A6922615A695C
:10CF600062619B69A36113BD014B03607047C046BA
:10CF700000FC0300F0B50300186880F308885868C7
:10CF8000FF2464B2EFF30585002D01D1A6460047CA
:10CF9000251C061C21273FBAF0B4002400250026DA
:10CFA0000027F0B4F92040B20047C046F0BDC046AB
:10CFB000030030B5002A07D01088FF241A00591842
:10CFC00064018A4202D130BD0848F6E7137840BABE
:10CFD00080B25840C3B21B095840030343405D016F
:10CFE000254098B268400132EBE7C046FFFF0000E1
:10CFF00018DF704770B514001D00022909D00429FC
:10D0000014D0002C04D0002220001100FFF7DCF81F
:10D0100070BD0E4B1B78052BF3D10D4B1B68002BFD
:10D02000EFD02A00210004209847EAE7074E337822
:10D03000022BE6D1074B5B6898470320044B307006
:10D040001B68002BDDD02A002100EDE7D42C002046
:10D05000CC2C0020DC2C0020012200B5074B89B02D
:10D060001A7003AB04321A70079A0398009204995D
:10D07000059A069BFFF73CFE09B000BDD52C0020A9
:10D08000032300B589B003A80370074B1B884380B6
:10D09000064B079804330ECB00900398FFF728FE49
:10D0A000002009B000BDC046E82C0020342D00202F
:10D0B000012200B589B003AB1A70084A12885A8061
:10D0C000C0239B019868064B04330ECB0090039855
:10D0D000FFF70EFE002009B000BDC046E82C00207E
:10D0E000342D002010B588B003AC1422002120009C
:10D0F000FFF760F80423237000230398009304993A
:10D10000059A069BFFF7F4FD08B010BD10B500248A
:10D110008AB01422002105A8FFF74CF802AB1C735B
:10D12000084B02AA1B880699D381074B099ADB6832
:10D13000059803920092079A0893FFF7D9FD200003
:10D140000AB010BDE82C0020342D00200222084B2C
:10D15000084810B51860084B1A70084B196801F0A0
:10D16000FAF8002803D000221100FFF72DF810BDB7
:10D170004C2D0020442D0020D42C0020EC2C00202D
:10D1800070B50E4B08241D78002D15D10C4C20686D
:10D19000FFF7F8FC002803D02A002900FFF714F855
:10D1A000F021206800228903FFF7A0FC041E03D0B1
:10D1B00000221100FFF708F8200070BDD52C0020D8
:10D1C000D82C0020F0B51E00032385B00500019087
:10D1D000970868460C00009302910397FFF708FF39
:10D1E00000281ED080235B019C4212D80123684690
:10D1F0000093019502940397FFF7FAFE002810D1DF
:10D20000032368460093019502940397FFF7F0FE0D
:10D2100007E033003200A11BA81BFFF7D3FF002853
:10D22000E4D005B0F0BD0000F0B5002685B00822BE
:10D23000002102A8FEF7BEFF1A4B1B4F01931B4BA8
:10D2400039001E701A4B01A81E8001F061F8194DBB
:10D250000400B04203D02E70200005B0F0BDC02302
:10D26000154E9B019B680100144A30007B60FFF75C
:10D2700017FC002803D022002100FEF7A5FFF021B3
:10D28000002230688903FFF731FC002803D0002218
:10D290001100FEF799FF0022094B1A6001232B7041
:10D2A000DAE7C046F5CF0300442D0020302D0020E2
:10D2B000E82C0020D42C0020D82C002059D00300CA
:10D2C000D02C0020014B18607047C046CC2C0020A9
:10D2D000234B70B51900426831CA31C112680A6027
:10D2E00019784A0702D506248A0730D103255A68DF
:10D2F00006242A422BD19868284228D1DE682E4283
:10D3000025D11318F0229B19164E9201336024196F
:10D3100090421CD8C02292019068F0229202121A08
:10D32000934214D8104D114B2B60114B6B60CB07FF
:10D330000FD5104BAB60104B08241B78012B06D186
:10D34000FFF71EFF041E02D12B68306898472000AB
:10D3500070BD8B0701D5094BECE7094BEAE7C046E6
:10D36000342D0020EC2C0020DC2C00204DD10300BB
:10D37000E5D00300B1D00300D42C002081D00300FD
:10D380000DD10300F8B505000E20002D17D0AB68B5
:10D3900002309B0713D1164B1A78032A10D0083895
:10D3A000052A0CD16B68134E134F9C0033683A6802
:10D3B000E318934207D901230C205B423360F8BD88
:10D3C00005221A70EEE7FFF7DBFE0028F7D10B48C5
:10D3D00022003368A968006800F0AEFF0028EED193
:10D3E0003368E4183B6834609C42E8D00930E6E7D3
:10D3F000D42C0020D02C0020EC2C00204C2D002020
:10D4000070B50A4B08201D68002D0CD1084E3378EA
:10D41000042B08D1074C0848217800F047F9002870
:10D4200002D10523337070BD2570FCE7D02C00209D
:10D43000D42C0020302D0020F02C0020F8B5144B07
:10D4400006001A78032A1DD00824042A18D1114B8B
:10D4500008241B68002B13D1FFF792FE041E0FD186
:10D4600073680D4F9D003B785A19402A0DD80B4820
:10D470002A00C018B16802F0F1F93B785D193D70DF
:10D480002000F8BD04221A70E1E70924F8E7C0463D
:10D49000D42C0020D02C0020302D0020F02C002097
:10D4A00070B50E4C08202378052B15D10C4D0D4B73
:10D4B0002A681B6893420FD106232370FFF760FE92
:10D4C000002809D1084B29681B68586800F0F0F85B
:10D4D000002801D10723237070BDC046D42C002042
:10D4E000EC2C0020D02C00204C2D002010B5094B36
:10D4F00008201B78072B0CD1074B1868FFF742FB5D
:10D50000002803D000221100FEF75EFE034B9B684B
:10D51000984710BDD42C0020D82C0020DC2C0020F3
:10D52000062200B589B003AB1A70079A03980092DF
:10D530000499059A069BFFF7DBFB09B000BD0000CC
:10D54000F0B58FB007A8FFF7F8FC0A9C201E19D091
:10D5500080230D9D5B01E318AB422ED91D4BEB18C8
:10D5600001935F08C0239B019B689C420CD8012358
:10D570000198984380235B01C118221A3B002818A8
:10D58000FFF720FE0FB0F0BD802301265B01FB18E2
:10D5900003A80396049305930696FFF729FD002838
:10D5A000F0D1802303A85B010396049305930696AC
:10D5B000FFF71EFD0028E5D1D9E70123039380235F
:10D5C000A4085B0103A8049505930694FFF710FDDA
:10D5D000D8E7C04600F0FFFF00B58DB005A8FFF703
:10D5E000ACFC099800280DD0089B002B0CD1C0235F
:10D5F0009B019B6800228008039001A8019202937E
:10D60000FFF7F6FC0DB000BD0B9A9B18F2E700B5D2
:10D610008DB005A8FFF791FC0998002810D0089B51
:10D62000002B0FD1C0239B019B6803220192F022A3
:10D6300080089202049001A802920393FFF7D8FC9D
:10D640000DB000BD0B9A9B18EFE7000030B58DB010
:10D6500005A8FFF772FC0898002815D080210B9DC3
:10D6600049014318AB4211D9C0239B019B689842E2
:10D6700018D80D4B0122EB181C009443D3406118BD
:10D68000021B2819FFF79EFD0DB030BD0323019347
:10D69000802380085B01049001A802930395FFF7A3
:10D6A000A7FCF1E70E20EFE700F0FFFF0020704736
:10D6B000002070474278017883781202C0781143C5
:10D6C0001B040B4300061843704773DF704774DF79
:10D6D000704776DF70477ADF70477CDF70477FDF07
:10D6E000704782DF7047A7DF7047A8DF7047A9DF68
:10D6F0007047AADF704767DF704700B50C2813D862
:10D7000001F0F4FF14121212121209120712120D74
:10D710000B00022000BD0320FCE70420FAE7081FED
:10D72000431E98410530F5E70620F3E70120F1E7B5
:10D73000002210B51100FEF747FD10BD10B5FFF730
:10D74000F7FF10BD70B50C001500032825D0042884
:10D750000FD100290ED0144B1888144B984208D0D2
:10D760001321FFF7B6FF002803D000221100FEF7B7
:10D770002BFD70BD100000F04BFC002803D02200F0
:10D780002100FEF721FD0A4B1B68AB42F1D10122BB
:10D790000321084801F09CFDE5E701212000FFF787
:10D7A000ACFF01210200F4E7602C0020FFFF000025
:10D7B000F42D0020A82D002010B50400080003213E
:10D7C000FFF79BFF03210200200001F081FD0028EC
:10D7D00003D000221100FEF7F7FC10BDF0B5114B8D
:10D7E0008FB09B7901AE02ACB3700F4B07000021E4
:10D7F0003022200000253380FEF7DCFC02232900C4
:10D8000023702000013BA570E7702381059601F08D
:10D81000A7FAA84203D02A002900FEF7D5FC0FB0D2
:10D82000F0BDC046A82D002030150000F0B5284BF3
:10D830008BB01E78002E2DD1264C182231002000EE
:10D84000FEF7B8FC244B1D78002D3AD01022234956
:10D8500002A802F003F81022214802A9214F01F08A
:10D86000EFFF051E18D10520FFF7B8FF0123676001
:10D870002370257225612000FFF727FF002803D0C1
:10D8800000221100FEF7A0FC174801F091F80123D7
:10D890000F4A13700BB0F0BD114B0122009301AB86
:10D8A00006936B4606AD0420089301972A712A73EC
:10D8B000FFF794FF022326702372E560282323617B
:10D8C000D9E70620FFF78AFF257065602572F5E726
:10D8D000D82D0020502D0020A42D0020A0F80300FA
:10D8E0006F2D0020682D0020847C420070B504005C
:10D8F000AEB001F021FB7B48210001F01BFD208828
:10D90000192815D80F2804D8022800D1A6E02EB077
:10D9100070BD10380928FAD801F0F2FE2900320053
:10D92000F9FF4E00A600F9FFF9FFF9FFB4008100EE
:10D93000522800D1A6E0552860D05128E7D1A3791C
:10D94000002BE4D0A27A043A022AE0D8022B00D0BD
:10D9500001236A46382152181370C1236A465B00BE
:10D960009387614B0EA91888FFF7BFFE40E00020A7
:10D97000A2885D4B1A805D4B187001F019F8C6E75C
:10D980008023322108AA584C1380594B20881960F3
:10D9900001230EA9FFF7ADFE002803D000221100DD
:10D9A000FEF712FC534B1B78002B01D1FFF73EFF13
:10D9B00001235B422380AAE74F4C0722210002AEDD
:10D9C00006A801F04BFF1022E11D300001F046FFD8
:10D9D00021000EAD1C221831280001F03FFF424B00
:10D9E00085211888454A08AB0C960B95FFF777FE02
:10D9F000002800D18BE7002211000DE0A479002C53
:10DA000000D084E7384B13211888FFF762FE002806
:10DA100000D17CE722002100FEF7D6FB77E7A3794F
:10DA2000002B00D073E7314A1370314B1A68511E36
:10DA3000196000290FD10EAC14222000FEF7BAFBAA
:10DA400005232370129B0E9800930F99109A119B37
:10DA5000FFF74EF95BE7FFF7E9FE58E7224B00219D
:10DA60001888FFF748FEC3E7234AE089538D002159
:10DA7000984201D1110018310023A0880732FFF726
:10DA800030FEB5E7184B1E4D1C88AC4228D01D4B0C
:10DA9000197800291ED018490123082220003431AA
:10DAA000FFF725FE0028A6D1020001000223200076
:10DAB000FFF71DFE00289ED12A000C212000FFF751
:10DAC00012FE0222104BC318934300D11FE708280F
:10DAD0008ED11CE70B000A002000FFF708FE87E745
:10DAE000082088E7A82D0020602C0020D82D0020D9
:10DAF000642C0020EB2D0020682D0020E62D002056
:10DB0000FFFF0000A42D0020FECFFFFF002370B513
:10DB1000404A41481370414A88B0137001F080FDBB
:10DB2000051E74D13E48FFF7CDFB00F035FA051E07
:10DB30006DD13C4800F076FD3B4B6A461D701123C9
:10DB40003A4C1370200001F092FE210082B2684628
:10DB5000FFF7C3FD002803D02A002900FEF734FB9D
:10DB600001AC082200212000FEF724FB0C23002634
:10DB70002380DB1863807933FF332000A680E380A5
:10DB8000FFF7A9FDB04203D032003100FEF71CFBC5
:10DB900000210C222000FEF70DFB04232380244BE0
:10DBA00021006360234B2448A36001F027FA00287A
:10DBB00003D000221100FEF707FB00261C220021E3
:10DBC0002000FEF7F7FA1D4B019663608023DB010E
:10DBD000A360032323731A4B2000E6812674666139
:10DBE000A36101F069F9B04203D032003100FEF7C1
:10DBF000EBFA3F21134B1A788A4311000C220A4397
:10DC00001A7007225A7009329A70FFF70FFE280027
:10DC100008B070BDEB2D0020EDD80300E52D0020ED
:10DC200045D70300682D0020A42D002098F803009C
:10DC3000B1DC03003DD70300A82D0020CD0C00006F
:10DC400031D70300E62D0020012210B5144B1A70C5
:10DC5000144B1888144B984212D01321FFF739FD4A
:10DC6000002803D000221100FEF7AEFA01F05CF9A3
:10DC7000002803D000221100FEF7A6FA002010BDF4
:10DC80000A4C2378002BF1D0FFF721FD002803D0A8
:10DC900000221100FEF798FA00232370E6E7C04641
:10DCA000EB2D0020602C0020FFFF0000D82D00206D
:10DCB000F0B5050008780C008BB0092828D801F0D1
:10DCC00029FD32003A0049000A00190029004301E9
:10DCD0004C014C005101FFF7E3FB0421FFF70DFD60
:10DCE00004210200280001F0F3FA002810D00022DD
:10DCF000110054E0FFF7A8FF002803D00022110014
:10DD0000FEF762FAFFF7F2FB002801D0FFF708FCEC
:10DD10000BB0F0BDFFF798FF0028F7D000221100EC
:10DD2000FEF752FAF2E70122914B1A708B681A78CB
:10DD3000904B1A70ECE702268D4B1E708B681B7897
:10DD4000012BE5D1FFF75CFB3100FFF7D6FC0200A9
:10DD50003100C7E70322864BEBE7854B1E78022E86
:10DD600050D0032E77D0012ED2D11022002106A848
:10DD7000FEF720FA7F4B02AA1B78002713740322B8
:10DD800006AB05970392049323790C2B0AD031003C
:10DD9000280001F09DFAB842BAD03A003900FEF7E7
:10DDA00013FAB5E7A4682000FFF784FC0790201D54
:10DDB000FFF780FC089020000830FFF77BFC0990FB
:10DDC00003A8FFF785FA00280AD03100FFF795FC79
:10DDD00031000200280001F07BFA0028DDD197E72E
:10DDE000654B1860079B30000093089B0193019AD4
:10DDF000009B9446099A63449B18604A136000F0A4
:10DE0000D7FD85E70B7903221800104013420FD08D
:10DE10001A1A0432D2B29446190000270E00A268E2
:10DE20000131C9B297556145F8D11B1A04332371EA
:10DE300001230693A36806A8089323799B080793F8
:10DE4000FFF7FCFA002800D162E70221FFF755FC3A
:10DE50000221020046E708793200304200D077E71D
:10DE6000474E0390310000F0ABF8011E03D02800AC
:10DE7000FFF7A2FC4CE7A168039A306801F0EEFCC2
:10DE8000039800F007F9011EF1D103A9300000F05A
:10DE90000FF9011EEBD104230693039B06A89B08F0
:10DEA000079333680893FFF76DFA071E08D1324ACB
:10DEB000237911685B1813603268324B1A6027E7C8
:10DEC000092837D12C4E22793368D2182E4B326074
:10DED0001B78002B00D11BE72C4C2388013B9BB205
:10DEE0002380002B00D013E7244B196800290FD0A2
:10DEF000192050434B1EC018814217D801F014FC62
:10DF00000300182814D801209840013800F050FD73
:10DF10002800316801F0A4F9002803D00022110084
:10DF2000FEF752F91A4B1B882380F1E60123EAE73A
:10DF30001848EBE7306800F06BF8011E02D02800AB
:10DF4000FFF73AFC390092E701220F4B1A708B88D9
:10DF50000F4A13800D4A1380DAE600230A4A137031
:10DF60000B4AF8E7044B2800196801F03FF9BCE6BA
:10DF7000E52D0020F02D0020DC2D0020EC2D0020D0
:10DF8000F82D0020F42D0020E42D0020E22D0020AB
:10DF9000E02D0020FFFFFF010020064B064A18700D
:10DFA000064B1A60082298605A60D8601861586160
:10DFB00098617047FC2D0020002E0020202F0020AB
:10DFC00030B505000E2000291ED000240F4B0C6038
:10DFD0005A680A38A24217D00830202D14D8013AC6
:10DFE0005A60DA6818300132DA601A691D685043E5
:10DFF0002818086001219140986901320143996114
:10E00000072120000A401A6130BDC046202F0020A1
:10E01000F0B51F4A0400936804209C4685B0002B8D
:10E0200034D0072655691768E91A31400B002420BF
:10E0300058433818844211D10120984094696040B7
:10E04000906100200126072794699B190194546868
:10E050003B4002940025644603930AE001333340B9
:10E060009D42E4D11020EDE7002C0BD03500039940
:10E07000013C33008B401900029F019B67443F1B0A
:10E080000B42F1D0002D01D09460576005B0F0BD77
:10E09000202F00200721054A13691268013B0B401D
:10E0A0001D314B43D318186200207047202F0020E9
:10E0B00030B505000E20002D18D0002916D00C4BCD
:10E0C0000A38DA68002A11D02424013ADA609A6802
:10E0D000186801329A605A69544304192C60206A06
:10E0E00001320860072100200A405A6130BDC04655
:10E0F000202F002082B00190019B002B01D102B0A3
:10E100007047019B0848013B01930138C046C04657
:10E11000C046C046C046C046C046C046C046C046CF
:10E12000C046C046F1D1E7E7E703000029DF7047AA
:10E1300028DF70471823434305480222C0180023F4
:10E1400002610371836043618361C3607047C046AD
:10E15000442F00200B0037B5020018005D68DC6812
:10E1600009780095034DA40064595B690C30A04701
:10E1700037BDC0463C2F0020182370B5184C2278BC
:10E180005343E3181A795869022A03D0042A1AD093
:10E190000F2070BD134A996915689A68DB68AD0253
:10E1A000C0188023521B49192818DB009A4207D255
:10E1B0009208FFF7BBFF0028EBD10123A370E8E72B
:10E1C00080225200F5E780235B05196989B201F0CE
:10E1D000ABFA044B1B68C018FFF7AAFFEBE7C04679
:10E1E000442F00203C30002070B5134D06006C78A1
:10E1F00004200A2C19D028782418E4B2092C01D95B
:10E200000A3CE4B2182044432C19A2612200267172
:10E21000103241C941C2A360049BE360AB78002B7C
:10E2200004D000206B7801336B7070BDFFF7A4FF42
:10E230001128F7D1F5E7C046442F002070B5244CD3
:10E24000A378002B05D00021A170022802D003285A
:10E2500034D070BD182225781E486A430368A2187E
:10E260009268013303609B02934212D3637801608A
:10E27000013B63706B1CDBB2092B1CD8182169436E
:10E280000431002061182370FFF764FF2800FFF7B6
:10E2900051FF6378002BDCD0A378002BD9D1FFF796
:10E2A0006BFF0028D5D01128D3D0182123785943EB
:10E2B0000431611808E02B00093BDFE718210D202D
:10E2C0002378594304310919FFF744FFC1E7C046D9
:10E2D000442F00203C30002010B50024084B1C6067
:10E2E000084B1C809C7020000134FFF723FF0A2C90
:10E2F000F9D10020044B1860044B1860586010BD21
:10E300003C300020442F0020383000203C2F0020DB
:10E3100010B5074C020023680420022B07D0002010
:10E320000B60591C21601168024A9B00995010BD76
:10E33000383000203C2F002037B5CD180D430400A5
:10E340001020AD0706D100930E3813000A002100FB
:10E35000FFF74AFF3EBD07B500220B000092010007
:10E360000420FFF741FF0EBDF8B50C00214E4179A6
:10E370000500735C17000820002B09D1002C02D186
:10E380001D4CC90064181D4B2A689A4201D1072010
:10E39000F8BD0420E178285600F0DEF86B79184AC1
:10E3A00061689B009950002FF1D0164A16489F5083
:10E3B0000122296863780F58134097433B43A127F4
:10E3C0000B5003202B68FF00D959A37881430340E9
:10E3D0000B43A2202968C000CB5123780F24296861
:10E3E00023400F58A7433B430B506B790020F25456
:10E3F000CEE7C04640300020B0F803000080004067
:10E400004830002044300020040500000122022191
:10E4100003681A604379014AD154704740300020A4
:10E42000012302680249136142798B547047C04648
:10E43000403000201F2370B5027900251A401E3B92
:10E440009340134A0400D3674379124A9B009D50BE
:10E45000FFF7E6FF8022216892008B580E480340A8
:10E460008B50C223802221689B005202CA50802216
:10E4700021689202CA5080222168D202CA508022AA
:10E4800021681203CA506379044AD55470BDC0464E
:10E4900004E100E044300020F0F0FFFF40300020B5
:10E4A00030B5802464028C400568002B08D0C1235D
:10E4B0009B00EC5051310368FF318900CA5030BDD8
:10E4C000C223F5E7F8B502278024FF378F401D00EF
:10E4D0000668A400365906ABBE4307681B783E5158
:10E4E000066837593D433551FFF7DAFFF8BDA223DF
:10E4F00002688020DB00D3588000DBB2D84048435C
:10E500004009704770B5C12580260024AD00760211
:10E51000A30018000C4A41309B181A68FF3080B2E3
:10E52000002A0CD0094A51593200A240114206D0AB
:10E5300000221A60064B074A1B681168984701348D
:10E54000042CE5D170BDC0464091004000900040D1
:10E55000443000204830002030B5FF2503232C0034
:10E560000340DB009C4089012940E4439940C2B24A
:10E57000002814DA0F231340083B0E489B089B0029
:10E580001B18D86904402143D9611F231A40C021B8
:10E590001E3B9340084A49005350136030BDC025CC
:10E5A000054B80088000C018AD0043591C40214332
:10E5B0004151EAE700ED00E000E100E070B5012321
:10E5C0000D0000281AD109680E23002916D00C4C22
:10E5D000A1420CD0621A2F333B2A06D93C222000DC
:10E5E00001F03CF903E0CA5CE254013BFBD200229B
:10E5F0003C212000FEF7DCFC0023A0872B6070BDCF
:10E60000803F00200323064A5B429E4502D1EFF380
:10E61000098101E0EFF3088188690238007810472A
:10E62000BDE5030070B50E23061E11D0094C002273
:10E630003C212000FEF7BCFCA58F0B23854207D1AF
:10E640003C222100300001F009F900230135A587A3
:10E65000180070BD803F002060DF704713DF7047F7
:10E6600018DF704710B586B00C22002103A8FDF713
:10E67000A1FD022302A80293FFF7F2FF002803D0B6
:10E6800000221100FDF7A0FDF0208002FFF7E6FF59
:10E69000002803D000221100FDF796FD48220D202E
:10E6A000154B164900F098FF002803D000221100F6
:10E6B000FDF78AFD082200216846FDF77BFD6B46C9
:10E6C0001A780123002413436A46684601941370A4
:10E6D000FFF7C2FFA04203D022002100FDF774FD26
:10E6E000074800F0A7FF002803D000221100FDF723
:10E6F0006BFD06B010BDC04685F60300DC3300207C
:10E7000005E7030010B5FFF799FD10BD10B5142102
:10E710000820054AFDF768FD002803D000221100FB
:10E72000FDF752FD10BDC0464C30002010B50A0068
:10E7300001000248FDF748FD10BDC046EFBEADDE4A
:10E74000802273B5404BD205D158404C404DB12981
:10E7500007D10131D150BFF34F8FE560BFF34F8F29
:10E76000FEE7D658B22E01D10021D150F023394A0C
:10E770009B0212689A4204D0002211001000FDF79B
:10E7800023FD80235B051A698023DB009A4204D0B5
:10E79000002211001000FDF717FD2F4B05220093FA
:10E7A000032100202D4BFEF701F9002803D00022A1
:10E7B0001100FDF709FD00F0ADF8FEF721FBFEF7B3
:10E7C0006FFB00281ED0FEF77AFB002803D0002242
:10E7D0001100FDF7F9FCFFF745FFFFF797FFFEF784
:10E7E00095FB002803D000221100FDF7EDFCB22EAE
:10E7F0000DD1FEF71FFB002810D000221100FDF7FD
:10E80000E3FC0BE0FFF72EFFFFF780FFEFE7C023ED
:10E810009B019868FEF74EFA0028EAD0C026B601A0
:10E82000B068FEF747FA002808D0FEF739FB002849
:10E8300004D100F0B5F8B068FEF708FBBFF34F8FC6
:10E84000E560BFF34F8FFEE71C05000000ED00E020
:10E850000400FA051410001009CC03009C310020BC
:10E86000A02370B55B00984243D12549A0250B78C1
:10E8700024481A000478C532ED05FF32012C01D17D
:10E88000062B01D0092B35D126000023CE36FF36CA
:10E89000B6009200AB51AB50022C01D00134E3B270
:10E8A000037000230B700B7809210278164851433E
:10E8B0005918C9B2405C01210C0084402000134C5F
:10E8C0002468044215D0A02003251400CE32FF3264
:10E8D000C005920015501A1DC533FF339B001D5013
:10E8E0000B0093400D341A00A140094BC250043B69
:10E8F000C15070BD00249200AC500133D2E7C04635
:10E900002834002029340020B8F8030024340020E3
:10E910000C050000A02337B50024184ADB059C50E5
:10E9200004329C50164A174D9C502C3A9C50164B62
:10E9300021009C50154A28009C5004329C50144AD7
:10E940009C5004329C50134A9C5004329C50124AF2
:10E950009C50124AFFF708FDA04203D0220021007C
:10E96000FDF732FC28001421FFF7C1FD012302004E
:10E97000002128000093FFF7A5FD37BD34070000F4
:10E980003C070000D4F80300040000501407000006
:10E990001C070000240700002C07000061E80300AA
:10E9A00010B50248FFF746FD10BDC046D4F803007D
:10E9B00070B5074D04002B68002B02D10548FFF706
:10E9C00025FD2C60002C02D10248FFF729FD70BD07
:10E9D00024340020D4F8030072DF704779DF7047D9
:10E9E0007DDF704765DF7047F0B500240600250025
:10E9F00087B00C9F00933B78039102920193338878
:10EA0000AB420ADC002084423FD03B78019A013BB4
:10EA10009B1A0199009A535437E07368A90059185A
:10EA2000042205A800F01AFF04AB0022D91C05A897
:10EA3000FFF7D8FF002828D104ABDB78029A934275
:10EA400020D1614261413B7849009A1852181F2A2F
:10EA50001ADC002C06D19A1C3A700399009A0133F3
:10EA6000DBB2D154009B3A7805A89A1804ABDC1CA1
:10EA70002100FFF7B7FF002807D1227801243B7857
:10EA80009B183B700135BAE70C2007B0F0BDF7B515
:10EA9000089F16000097022204001D00FFF7A4FF44
:10EAA000002806D12B001022310020000097FFF72C
:10EAB0009BFFFEBD0023F0B51370037806000D0028
:10EAC000140087B0002B26D043780C201D2B00D9D2
:10EAD000CBE00E2702ABFF181D23881C3B803900BA
:10EAE000FFF77EFF002800D0BFE03378022B03D170
:10EAF0003B8809221D2B06D973785A1E9BB21C2A0B
:10EB000000D93B880822DBB2591C29706A70227830
:10EB100002329B182370B378002B20D023780C206E
:10EB20001B2B00D9A1E00E2702ABFF183800FFF71E
:10EB300055FF002800D098E023785A1C2270032249
:10EB4000EA5423785A1C22701922EA5423783A880E
:10EB5000EB181A70120A5A70237802332370F37874
:10EB6000002B0ED023785A1C22700222EA542378FC
:10EB70005A1C22700122EA5423789A182270F278E3
:10EB8000EA547268002A12D023781C2B00D9DEE0E8
:10EB9000591C127821700221E954237852B2591C71
:10EBA00021700A21E9542378591C2170EA543389D1
:10EBB000002B50D1338A002B09D030002B000722C4
:10EBC000032100941030FFF762FF00284DD1338BF2
:10EBD000002B09D030002B0015221421009418308E
:10EBE000FFF755FF002840D1326A002A3FD1776AEB
:10EBF000002F28D03B792278981C911CC0B20918AC
:10EC00001F2900DDA3E0511C03332170AB5423788E
:10EC10005A1C2270FF22EA5423783A88EB181A70A3
:10EC2000120A5A7020780230C0B22070BA88002AC6
:10EC300009D0B968002921D0281800F00FFEBB8840
:10EC400022789B18237033002C3303931B78002BFE
:10EC500047D1002009E030002B0006220221009459
:10EC60000830FFF714FF0028A4D007B0F0BD2178CA
:10EC70008B1D1F2B6BD81388052B01D80720F4E7B9
:10EC8000344FD81980B202903348844602986045C8
:10EC9000F4D950880528F1D9C719BFB26745EDD915
:10ECA0002E4FBB4201D08342E8D84B1C2370052372
:10ECB0006B542378591C21701221E9542378118850
:10ECC000EB181970090A597023780233DBB22370EC
:10ECD0005288EB181A70120A5A7023780233237084
:10ECE00085E7B36A002BC9D0002302930C27029B4F
:10ECF00022785F43B36A511CDF193B7921700333DB
:10ED0000AB5423785A1C22701622EA5423783A888E
:10ED1000EB181A70120A5A7020780230C0B22070B4
:10ED2000BA88002A09D0B9680029A7D0281800F0AD
:10ED300095FDBB8822789B182370029B0133DBB2C0
:10ED40000293039B029A1B789342CFD881E70C2051
:10ED50008BE7C0467FF3FFFF7DF30000FFFF00005D
:10ED600030B593B000236A4604000D009371D3714F
:10ED700098420CD0C3785B0702D4072013B030BD93
:10ED8000063202A9FFF796FE0028F7D102AC002D4B
:10ED90000BD0EB78002BF0D16B462800DA1D0AA9C6
:10EDA000FFF788FE0028E9D10AAD6A466B469179E3
:10EDB00020002A00DB79FFF70FFEDFE775DF7047E1
:10EDC00076DF70477ADF70477BDF704713B5164BED
:10EDD0001888164B984211D0154A164C13780133F7
:10EDE000DBB21370217B994209D31349FFF7E6FF89
:10EDF000002803D0A369002B00D0984713BD00233F
:10EE00001370237C002B08D03B21FFF7D9FF00288B
:10EE100003D0A369002B00D098476369002BEDD085
:10EE2000002201A80270E8E72C340020FFFF000058
:10EE300060340020303400205834002037B5184B9F
:10EE4000184A5B881188184C184D994208D8528886
:10EE50009A4205D36369002B1FD100232B7037BD65
:10EE60002B78002B06D06369002BF6D0002201A876
:10EE700002700EE00E4B1B78002B0CD161680D4B1D
:10EE800000221868FDF732FE0028E6D0A369002BA7
:10EE9000E3D09847E1E7A168F1E7012201A8E7E79D
:10EEA0005034002058340020303400202A34002010
:10EEB000603400204C340020144902000B0070B56F
:10EEC00032CA32C332CA32C31268114C1A600022ED
:10EED000104B01681A70914214D02000083200F0E3
:10EEE000BDFC2000FFF76EFF00280AD1012200219F
:10EEF000094B52421A80094B094A0A481970FDF71A
:10EF0000CFFD70BD2000FFF75FFFEDE7303400203C
:10EF1000583400202A3400202C3400206034002093
:10EF2000CDED03004C34002010B5024B1868FDF7FE
:10EF300029FE10BD4C34002010B503880100122BAF
:10EF400040D004D8102B18D0112B28D010BD502B36
:10EF5000FCD11F4CC088E2899042F7D1CB8B022BA9
:10EF6000F4D10131CB7FDB0716D41A4B1868FDF7BB
:10EF700009FE0028EAD0A36920E08288164B1748D2
:10EF80001A801631082200F069FC0022144B1A7016
:10EF90000F4BDB899342D9D1FFF750FFD6E701220F
:10EFA0000D4B52421A8000220D4B1A70094B186803
:10EFB000FDF7E8FD0028C9D0054B9B69002BC5D0A3
:10EFC0009847C3E708220631044800F047FCE3E70E
:10EFD000303400204C3400202C34002050340020E9
:10EFE00060340020A0DF7047A2DF7047A5DF7047C4
:10EFF000A6DF7047A8DF704763DF7047F0B597B0B2
:10F0000007000E240091002800D1DFE0002900D184
:10F01000DCE04B680193002B00D1D7E001235B4279
:10F02000038010226B4906A800F018FC0A2102AAEE
:10F03000694B891806A81381FFF7DEFF041E00D074
:10F04000C4E001203A1D04A9FFF7CCFF041E00D044
:10F05000BCE002AB9B7A0FAD01001C22BB71280003
:10F06000FDF7A8F804232A7803AE13432B70BB796D
:10F0700002AA9373594B21009381300003226C60E4
:10F08000EC602C616C61AC61FDF794F811231F22D8
:10F0900003207370B3782100934303430B3A0AA80B
:10F0A0003470B370FDF786F8142005A90A9102A9FF
:10F0B0000C940B9688850E943C00083423000AAC0F
:10F0C00022002900B888FFF78FFF041E00D07DE0E2
:10F0D00001001C222800FDF76DF818232A7802A9E8
:10F0E0009A4313432B70BB7903228B733C4B300044
:10F0F0008B8121006C60EC602C616C61AC61FDF770
:10F1000059F811231F21B27873708A4302331343D5
:10F11000210014220AA83470B370FDF74BF81723AE
:10F1200005A80A9002A80C940B9683850E943C00C7
:10F13000103423000AAC22002900B888FFF754FFDE
:10F14000041E43D101001C222800FDF733F80220E1
:10F150002B7802AA03432B70BB7921009373214BB8
:10F160003000938103226C60EC602C616C61AC61B7
:10F17000FDF720F811231F2103223370B3780AA86A
:10F180008B431343210011327470B370FDF712F8F2
:10F19000022305AA0A9202AA0C930B969385009B60
:10F1A00029000E933B00B88820330AAAFFF71CFF02
:10F1B000041E0BD1009B5B68BB620193009B9B68A4
:10F1C000002B00D0FB620122074B1A70200017B001
:10F1D000F0BDC046DCF80300301500003215000019
:10F1E000311500003415000061340020F0B5060030
:10F1F00087B00E20002E2AD03288164B06389A424D
:10F2000025D0154B1B78002B21D0144C080AE17037
:10F210002071080C090E072310220127A1716946ED
:10F2200002ADCB8063700021607122702800A7704E
:10F23000FCF7C0FF338A29002B800023AB806B468C
:10F2400030880633AF7004930594FFF7D1FE07B002
:10F25000F0BDC046FFFF0000613400206234002092
:10F26000F0B5040087B00E20002C28D02288154B62
:10F2700006389A4223D0144B1B78002B1FD0112341
:10F28000124D02AE2B700B0AAB700B0CEB706B4681
:10F290009F1D05236970090E29711022002130007D
:10F2A0003B80FCF787FF238A310033800123B37052
:10F2B00000232088B38004970595FFF799FE07B0D7
:10F2C000F0BDC046FFFF0000613400206234002022
:10F2D000F0B51300050087B00E20002D22D02C8839
:10F2E000114A063894421DD0104A1278002A19D0CB
:10F2F0000F4E1022717069468F1D032102AC3980B8
:10F30000B370002120003270FCF754FF2B8A2100DB
:10F3100023800123A37000232888A38004970596E7
:10F32000FFF766FE07B0F0BDFFFF0000613400206C
:10F3300062340020F0B504000D008BB000280CD022
:10F3400000290AD0826A002A07D00B88502B3DD0B2
:10F3500005D8102B37D0112B46D00BB0F0BD512B58
:10F36000FBD18A790192022AF7D10A89038A9A424B
:10F37000F3D18B7A043B022BEFD9019B03AE082219
:10F380000021300006AF3B70FCF714FF019B3200F8
:10F390000393A18A02AB20887360FFF727FE002841
:10F3A00025D0E36A002B00D09847FE233900FF33B5
:10F3B0002088BB80FFF71EFE0028CED0E36A002B1A
:10F3C000CBD09847C9E78B882380C6E7C9880389D3
:10F3D0009942C2D1082302A90B74EB8B20350B751F
:10F3E000089506A99047B8E701235B42ECE702AB1A
:10F3F0001B882088DB07D8D500233900BB80FFF7A6
:10F40000F9FD0028DAD1EB1CD97F481E07283CD82B
:10F4100000F06CF9041820232527392900233370C4
:10F420002B8C012B05D8062201212000FFF750FF6D
:10F43000C2E7012323353371B56031002000A36A90
:10F4400098478AE7012333702A8C9A42F2D8062221
:10F450000221EAE702233370EFE70323FBE70423EB
:10F46000F9E70523F7E72B8C022B02D803220821AA
:10F47000DBE723356B782A781B021343B3805A42AB
:10F4800053410633E7E70923E5E70322CDE7000010
:10F4900070B51B490B68DBB2012B03D11948036817
:10F4A0001B0700D070BD184AF0231468E026250021
:10F4B0001D40344221D1154C24681C420DD1144BFF
:10F4C000144C1C608024144B24021C600B68DBB2BB
:10F4D000012BE7D103681B07E4D11368F022134026
:10F4E000402BDFD1094B1B681342DBD18022C123A3
:10F4F0000121D205DB00D150D4E7302DDBD0ECE781
:10F50000E00F00F0E40F00F0E80F00F0EC0F00F067
:10F5100004050040DFFF07C0186C00402EDF704775
:10F5200051DF704710DF704761DF704710B508008A
:10F530001100FFF7FBF810BDF0B5224B85B01B782A
:10F54000DAB20192002B3BD01F4D204E2B685C425B
:10F550005C413268E4B2002A2CD003A8FFF7E0FF38
:10F5600005282BD0002819D000221100FCF72CFE12
:10F57000002CF2D1164B03A91B880B80154B1F687A
:10F580003800FFF7D1FF052810D000280AD000224C
:10F590001100FCF719FE002CECD1DEE7039833686C
:10F5A0009847E5E738002B689847F4E7002C07D127
:10F5B000019CD2E7002B03D0019CDBE7002CFBD0A1
:10F5C00005B0F0BD743400206C3400207834002085
:10F5D0006A3400207C34002070B504000720002924
:10F5E00013D08D0711D109480160094920000A8014
:10F5F000084A09491360FFF795FF002805D1012249
:10F60000064B16301A70FFF789FF70BD7C3400205E
:10F610006A340020703400202DF50300743400207B
:10F6200003000E20002B02D00020014A1360704717
:10F630006C34002003000E20002B02D00020014A71
:10F64000136070477834002010B5074B1B68002BFF
:10F6500007D09847002803D000221100FCF7B4FD22
:10F6600010BDFFF769FFFBE77034002010B50029DB
:10F6700004D0002211001000FCF7A6FDFFF75CFF8C
:10F6800010BD0000002110B50800024AFCF7D2FDB1
:10F6900010BDC0466DF6030003210A4802680A4304
:10F6A0000260094802680A4302600849084A094B97
:10F6B0009B1A03DD043BC858D050FBDC064880474A
:10F6C000064800472405004054050040F4F80300B4
:10F6D000002C0020682C002091F40300CDC0030012
:10F6E000FEE7FEE7FEE7FEE7FEE7FEE702B471464F
:10F6F00049084900095C49008E4402BC7047C04675
:10F7000003B47146490840004900095E49008E442F
:10F7100003BC704703B47146490840004900095AC8
:10F7200049008E4403BC7047002243088B4274D3C7
:10F7300003098B425FD3030A8B4244D3030B8B42F2
:10F7400028D3030C8B420DD3FF22090212BA030CFB
:10F750008B4202D31212090265D0030B8B4219D3DC
:10F7600000E0090AC30B8B4201D3CB03C01A5241FC
:10F77000830B8B4201D38B03C01A5241430B8B4244
:10F7800001D34B03C01A5241030B8B4201D30B032D
:10F79000C01A5241C30A8B4201D3CB02C01A524154
:10F7A000830A8B4201D38B02C01A5241430A8B4217
:10F7B00001D34B02C01A5241030A8B4201D30B0200
:10F7C000C01A5241CDD2C3098B4201D3CB01C01A1A
:10F7D000524183098B4201D38B01C01A5241430924
:10F7E0008B4201D34B01C01A524103098B4201D312
:10F7F0000B01C01A5241C3088B4201D3CB00C01A7F
:10F80000524183088B4201D38B00C01A52414308F6
:10F810008B4201D34B00C01A5241411A00D201461B
:10F82000524110467047FFE701B5002000F006F88E
:10F8300002BDC0460029F7D076E770477047C04642
:10F8400030B500240139A24201D1002005E0035D5A
:10F8500001340D5DAB42F6D0581B30BD002310B50E
:10F860009A4200D110BDCC5CC4540133F8E70023A8
:10F87000C25C0133002AFBD1581E7047F8B5C04660
:10F88000F8BC08BC9E467047F8B5C046F8BC08BC3A
:10F890009E467047002C00204466755461726700D4
:10F8A0000000000000000000000000000000000058
:10F8B0000000000300000000000204131211100FEA
:10F8C0000B0E0A0C01031715000016181405060785
:10F8D00008090D000090004009000000A8A9DF22DF
:0CF8E00019FA62A00A471D2500005DE92E
:08F8EC00D4C7FF7F01000000FA
:10F8F4000000000000000000000000000000000004
:10F9040000000000000000000000000000000000F3
:10F9140000000000000000000000000000000000E3
:10F9240000000000000000000000000000000000D3
:10F9340000000000000000000000000000000000C3
:10F9440000000000000000000000000000000000B3
:08F95400FFFF0000320000007B
:10FC00000100000000000000FE00000000000000F5
:10FC100000000000000000000000000000000000E4
:10FC200000000000000000000000000000000000D4
:10FC300000000000000000000000000000000000C4
:10FC400000000000000000000000000000000000B4
:020000020000FC
:020000041000EA
:0410140000C0030015
:040000033000F6993A
:00000001FF
