:020000023000CC
:10C00000807F00201DF0030065F0030067F003004F
:10C010000000000000000000000000000000000020
:10C0200000000000000000000000000015E6030012
:10C0300000000000000000006BF003006DF0030042
:10C040006FF003006FF003006FF003006FF0030068
:10C050006FF00300000000006FF003006FF00300BA
:10C060006FF00300C9E503006FF003006FF00300F9
:10C070006FF003006FF003006FF003006FF0030038
:10C080006FF0030029E103006FF003006FF003007D
:10C09000D9E103006FF00300C1E603006FF0030075
:10C0A0006FF003006FF003000000000000000000CC
:10C0B0000000000000000000000000000000000080
:10C0C000402292029A1A92467047C046154B002BA6
:10C0D00000D1114B9D46FFF7F3FF00218B460F4621
:10C0E0001148124A121A00F079F80C4B002B00D0BC
:10C0F00098470B4B002B00D09847002000210400EC
:10C100000D000B4800F016F800F046F8200029005A
:10C1100002F0ECFA00F016F8000008000000000041
:10C1200000000000807F0020702C00200C350020D3
:10C1300071C1030010B5010000230022002000F0AF
:10C14000A1F810BD084B10B50400002B02D000214F
:10C1500000F000F9054B1868836A002B00D098475F
:10C16000200000F075F9C04655C3030024F3030016
:10C1700070B5074D074C641BA41005D0013CA3000B
:10C18000EB589847002CF9D103F0C6F870BDC046B3
:10C19000702C0020702C002070B50C4D0C4E761BBE
:10C1A000B61005D0002408CD01349847A642FAD134
:10C1B00003F0ACF8074D084E761BB61005D00024EE
:10C1C00008CD01349847A642FAD170BD702C0020EA
:10C1D000702C0020702C0020702C0020F0B5050081
:10C1E000830749D0541E002A45D003000326CAB253
:10C1F00002E00135013C3ED301332A703342F8D1CD
:10C20000032C30D9FF220A40150215432A04154396
:10C210000F2C34D92700103F3F093E01B4461E00C1
:10C220001A0010366644156055609560D56010326E
:10C23000B242F8D101373F01DB190F270C2227400A
:10C2400022403C00002A0ED03E1FB608B400A4468F
:10C250001A001C1D644420C2A242FCD103240136F2
:10C26000B6009B193C40002C05D0C9B21C191970AE
:10C2700001339C42FBD1F0BD03001400C0E727004E
:10C28000E2E7C046F0B54F464646D646C0B59846AA
:10C290002C4B06001D680F00914682B0002D27D060
:10C2A0006C681F2C4ADC002E16D08823E8589A466A
:10C2B00000282FD07833C1584A46A300C3181A600B
:10C2C0000122A240114391468022520081508021D8
:10C2D00042465A50022E16D00020631C0234A4009D
:10C2E0006B60675102B0E0BCBA46B146A846F0BDEB
:10C2F000154D1D60154B002BD2D01B680193882370
:10C30000019AEA50CCE7822349465B00C2581143A8
:10C31000C150E1E70E4B002B10D08420400000E01C
:10C3200000BF00280AD0802200235200835004322C
:10C330008350534600216C68E850BDE7012040421D
:10C34000D0E7C046FC2C0020702C0020000000002C
:10C3500000000000F0B5DE4657464E464546E0B5C3
:10C360003A4B85B09A461B6889469B460390002B42
:10C3700055D05B4688229B5898465B465E68741E83
:10C380004DD443461F36B60035009F194B46803EBC
:10C390004644783DB1465D445E469B460DE04346CB
:10C3A000002B02D03B685B450AD004235B429C46CD
:10C3B000043F043DE144013C31D35B46002BEED108
:10C3C00073682A68013BA3423AD000232B60002AFD
:10C3D000EBD0736801934346002B27D001238020C4
:10C3E0004146A34040000958029119421ED08220C4
:10C3F0004146400009580291194223D14B46039807
:10C40000196890477368019A934214D153461B6888
:10C41000B342CAD0D9469B465B46002BA9D105B092
:10C42000F0BCBB46B246A946A046F0BD9047736833
:10C43000019A9342EAD053461B68D9469B46EBE7E4
:10C440007460C4E74B4618689047DBE7FC2C00207B
:10C45000FEE7C046BFF34F8F024B034ADA60BFF3DB
:10C460004F8FFEE700ED00E00400FA0536DF70476D
:10C4700037DF704710B5114B04205B68DB05DC0D1E
:10C48000002B14D0103C220001380240824061B2DF
:10C49000E3B224060CD50F210B40083B08499B084A
:10C4A0009B005B185B68D3409B091840C0B210BD6D
:10C4B0008B08C03303499B005B58F4E700ED00E0B4
:10C4C00018ED00E000E100E08022194B9202DA67EB
:10C4D000D2218022174B520289005A5040395A50BB
:10C4E00001222F215A6008000138C046C046C046CC
:10C4F000C046C046C046C046C046C046C046C0460C
:10C50000C046F1D19A6000220B4B08001A60013836
:10C51000C046C046C046C046C046C046C046C046EB
:10C52000C046C046C046C046F1D11A717047C046E9
:10C5300004E100E000100140002D002010B5FFF7DD
:10C5400099FF03000020012B03D0D81E431E984101
:10C55000013010BD70B5184D0400AA680820002AEB
:10C5600028D02B7B0138A34224D9242363439B5C2E
:10C570000130012B1ED1FFF7E1FF2B69C0001B1812
:10C580005D789A78691C914200D100211A780420C4
:10C590008A420FD018226A43586882180420002A61
:10C5A00008D0023810705460802200205970034B6C
:10C5B00052035A6070BDC046002D0020FCE100E02F
:10C5C00010B5082901D0FFF745FF03684068984778
:10C5D00010BD48DF704711DF704713DF704710B59B
:10C5E000054B187D012802D1022900D11975002AB6
:10C5F00001D0FFF72FFF10BD002D002070B5FFF711
:10C60000E8FF002801D0FFF725FF104B597D9A7DE8
:10C61000914215D0587D1D8B5C7D0021C0B2E2B2E5
:10C62000A54201D90132D1B29C8CC2006043597538
:10C63000D9691B6A8A181818918813689847E4E723
:10C640001B7D023B022BDAD870BDC046002D0020B6
:10C65000054B01201A78A52A04D01879AA3843423C
:10C660005841C0B27047C04600FC030010B5214BD2
:10C670001A780270DA78997812020A4342805C7A5A
:10C680001A7A997A24021443DA7A09040C431206BE
:10C69000224382601A7902715C7B1A7B997B2402A7
:10C6A0001443DA7B09040C4312062243C2605C7C0B
:10C6B0001A7C997C24021443DA7C09040C43120688
:10C6C000224302615C7D1A7D997D24021443DA7D48
:10C6D00009040C431206224342615A7E1C7E997E55
:10C6E0001202DB7E1443090421431B060B438361C2
:10C6F00010BDC04600FC030018DF7047F8B51400F9
:10C700001D00022905D0042910D0002C1DD0FFF7F0
:10C71000A1FE0E4BDA1DD27F052AF6D19B6A002BB3
:10C72000F3D02A00210004209847EEE7074EF71DBA
:10C73000FB7F022BE9D1336B98470320B36AF8776C
:10C74000002BE2D02A002100EEE7F8BD002D0020EA
:10C75000F0B51E00032385B00500019097086846D8
:10C760000C00009302910397FFF7C6FF00281ED02C
:10C7700080235B019C4212D80123684600930195F7
:10C7800002940397FFF7B8FF002810D103236846EF
:10C790000093019502940397FFF7AEFF07E0330083
:10C7A0003200A11BA81BFFF7D3FF0028E4D005B07F
:10C7B000F0BD30B58DB005A8FFF758FF08980028E8
:10C7C00015D080210B9D49014318AB4211D9C023DC
:10C7D0009B019B68984218D80D4B0122EB181C0056
:10C7E0009443D3406118021B2819FFF7B1FF0DB025
:10C7F00030BD03230193802380085B01049001A8CE
:10C8000002930395FFF778FFF1E70E20EFE7C046AC
:10C8100000F0FFFF4278017883781202C07811435C
:10C820001B040B4300061843704773DF704774DF27
:10C83000704776DF70477ADF70477CDF70477FDFB5
:10C84000704782DF7047A7DF7047A8DF7047A9DF16
:10C850007047AADF704767DF704700B50C2813D810
:10C8600002F0AAFC14121212121209120712120D6F
:10C870000B00022000BD0320FCE70420FAE7081F9C
:10C88000431E98410530F5E70620F3E70120F1E764
:10C8900010B5FFF7DFFD10B5FFF7DCFDF0B51F4A5F
:10C8A0000400136C04209C4685B0002B34D007266E
:10C8B000D56C976BE91A31400B0024205843381887
:10C8C000844211D101209840146D60401065002011
:10C8D00001260727146D9B190194D46B3B400294E9
:10C8E0000025644603930AE0013333409D42E4D1BE
:10C8F0001020EDE7002C0BD035000399013C3300EC
:10C900008B401900029F019B67443F1B0B42F1D0F3
:10C91000002D01D01464D76305B0F0BD002D0020B8
:10C9200029DF704728DF7047182343430548022258
:10C93000C018002302610371836043618361C36097
:10C940007047C046183400200B0037B502001800AD
:10C95000DC680978A500044C0C3064195D6800950A
:10C96000646D5B69A04737BD002D0020182370B5AA
:10C97000184C22785343E3181A795869022A03D0D5
:10C98000042A1AD00F2070BD134A9969D56D9A6890
:10C99000DB68AD02C0188023521B49192818DB0040
:10C9A0009A4207D29208FFF7BBFF0028EBD1012380
:10C9B000A370E8E780225200F5E780235B05196940
:10C9C00089B202F017FC044BDB6DC018FFF7AAFF19
:10C9D000EBE7C04618340020002D002070B5134D41
:10C9E00006006C7804200A2C19D028782418E4B2A8
:10C9F000092C01D90A3CE4B2182044432C19A26145
:10CA000022002671103241C941C2A360049BE36039
:10CA1000AB78002B04D000206B7801336B7070BDB5
:10CA2000FFF7A4FF1128F7D1F5E7C046183400201E
:10CA300007B50220084BDA1D1900D07700226431B7
:10CA400019660092DB6E0018FFF7C8FF002801D0BE
:10CA5000FFF700FD07BDC046002D002060DF7047D6
:10CA600070B5244CA378002B05D00021A1700228BA
:10CA700002D0032834D070BD182225781E486A439E
:10CA8000C36DA21892680133C3659B02934212D30F
:10CA90006378C165013B63706B1CDBB2092B1CD84A
:10CAA000182169430431002061182370FFF74CFFFF
:10CAB0002800FFF739FF6378002BDCD0A378002B28
:10CAC000D9D1FFF753FF0028D5D01128D3D0182192
:10CAD000237859430431611808E02B00093BDFE754
:10CAE00018210D202378594304310919FFF72CFF31
:10CAF000C1E7C04618340020002D0020064B074A2D
:10CB0000DA61074A1A6200229A755A7508329A84C5
:10CB10000C321A837047C046002D0020C832002016
:10CB200070330020084A136F002B06D10121074BF8
:10CB30001960130049187433197001238340116F71
:10CB40000B4313677047C046002D00200090004043
:10CB500001210A008240054B186F9043186703D1EA
:10CB6000034A7433116119707047C046002D0020CC
:10CB70000090004070B5114D01222B0075331A70E2
:10CB80000F4B18880F4B984206D01321FFF751FE28
:10CB900000280DD0FFF75EFC2E0076363378002B90
:10CBA00006D0FFF744FE041EF4D1FFF7D1FF347026
:10CBB000A86FFFF7CFFC0028ECD170BD002D00203E
:10CBC000642C0020FFFF0000A02330B55B009842DA
:10CBD0004CD12B4BA0241A007C3210781A007D32E5
:10CBE0001278E4051100C531FF31012801D1062A70
:10CBF00001D0092A3BD105000022CE35FF35AD001A
:10CC0000890062516250022801D00130C2B219007D
:10CC10007C310A701A0000217D3211701A0009203F
:10CC20007C3211781A0048437D321278154C101866
:10CC3000C0B2245C01200500A5401B6F2B4215D01B
:10CC4000A02303250C00CE31FF31DB058900CD5038
:10CC5000111DC532FF329200D55002008A400D34BA
:10CC60001100A040084A9950043A985030BD002065
:10CC700089006050190001327D310A70CEE7C0464C
:10CC8000002D002030F303000C05000072DF704718
:10CC900079DF70477DDF704765DF7047F0B50024AE
:10CCA0000600250087B00C9F00933B780391029209
:10CCB00001933388AB420ADC002084423FD03B78AA
:10CCC000019A013B9B1A0199009A535437E073680B
:10CCD000A9005918042205A802F0EEF904AB0022BD
:10CCE000D91C05A8FFF7D8FF002828D104ABDB78B2
:10CCF000029A934220D1614261413B7849009A18DF
:10CD000052181F2A1ADC002C06D19A1C3A7003997B
:10CD1000009A0133DBB2D154009B3A7805A89A18E7
:10CD200004ABDC1C2100FFF7B7FF002807D12278F5
:10CD300001243B789B183B700135BAE70C2007B003
:10CD4000F0BDF7B5089F16000097022204001D00F1
:10CD5000FFF7A4FF002806D12B001022310020008D
:10CD60000097FFF79BFFFEBD75DF704713B5174BAC
:10CD70007E331888164B984211D0164C2378227CAB
:10CD80000133DBB223709A420AD321002031FFF72E
:10CD9000EBFF002803D0E369002B00D0984713BDB8
:10CDA00000232370237D002B08D03B21FFF741FD9A
:10CDB000002803D0E369002B00D09847A369002B1B
:10CDC000EDD0002201A80270E8E7C046002D002047
:10CDD000FFFF0000802D00207BDF7047A0DF704741
:10CDE000A2DF7047A5DF7047A6DF704763DF70479B
:10CDF0002EDF704751DF704710DF704761DF7047EB
:10CE000010B5FFF727FB73B5194DAB6A5C425C4167
:10CE1000EA6AE4B2002A23D001A8FFF7EBFF052855
:10CE200022D0002801D0FFF715FB0198EB6A984744
:10CE3000002CF1D16B466E6B991C2B8E30000B8051
:10CE4000FFF7DCFF052807D00028ECD13000AB6AE3
:10CE50009847002CEED1DFE7002C04D10134DBE74A
:10CE60000124002BE6D173BD002CFCD10134E1E795
:10CE7000802D002010B5002901D0FFF7EBFA044BFC
:10CE800038331B78002B01D0FFF7BDFF10BDC04623
:10CE9000802D002030B5FF240200411809486401AC
:10CEA0008A4200D130BD43BA10789BB24340D8B219
:10CEB00000094340180343405D01254098B2684093
:10CEC0000132EDE7FFFF000010B50F4B00201A788C
:10CED000012A18D1DC789A782402144384420ED0B7
:10CEE0005A7A197A1202987A0A43D97AC02300042E
:10CEF000024309069B0198681143FFF7CBFF201AF4
:10CF000043425841C0B210BD00FC030037B50C4C81
:10CF1000002225003C351C23290004200092FFF745
:10CF20005DFD002801D0FFF795FA220000901C2338
:10CF3000290002204432FFF751FD0028F3D137BD0C
:10CF4000802D0020F8B5204E0500B2680C000820A6
:10CF5000002A37D0337B0138AB4233D9042931D989
:10CF600024236B43D118D35C0130012B2AD14B7899
:10CF70002700012B00D00027FFF7E0FA3269C0003C
:10CF8000121856789378711C994200D100211378B9
:10CF900004208B4216D0182373435068C318042012
:10CFA000002B0FD003385D601870084D08482858D2
:10CFB000DC60986000201F61586151708022054B31
:10CFC00052035A60F8BDC046002D002000100140F9
:10CFD00004050000FCE100E010B50B4C23006033B9
:10CFE0001B78002B0ED1606EFFF7B4FA002801D039
:10CFF000FFF730FAF021606E8903FFF7A3FF0028E6
:10D00000F6D110BD0820FCE7802D002013B5184C88
:10D01000230068335B88228C9A4209D8628C9A423A
:10D0200006D3A369002B20D100237034237013BDD5
:10D03000230070331B78002B06D0A369002BF3D09C
:10D04000002201A802700CE02378002B0BD1A1680C
:10D05000084B986FFFF776FF0028E5D0E369002BB7
:10D06000E2D09847E0E7E168F2E7012201A8E9E7AA
:10D07000802D0020002D00200023F0B585B0019206
:10D0800002AA0E000090D371FFF7F4F907000128FF
:10D0900006D002ABD81DFFF7E9F902283DD172B6E0
:10D0A000244C0020637D218BA57DDBB2EAB28D424A
:10D0B00001D20132D0B2834238D0A57DA07D0022BA
:10D0C000C3B2814201D90133DAB21A4B9A75012FEA
:10D0D0000BD062B602ABD879FFF7CAF902239843A6
:10D0E0001DD1154B04309D4215D0E369019AEF0024
:10D0F000DB191A60009A002A15D0002E13D0A08CDC
:10D10000236A684332001818009901F0D5FF002007
:10D11000E369DF19BE8005B0F0BD0028C0D0FFF77D
:10D1200099F9054DD5E700209880F4E7012FF8D153
:10D130000420F0E7002D0020FFFF000007B5064B9C
:10D1400000909B8C09200191072B04D90821684687
:10D15000024AFFF791FF0EBD002D0020C1C503005C
:10D16000002110B50800024AFFF786FF10BDC04637
:10D1700075CE030070B501230D00002819D1096890
:10D180000E23002915D00C4CA1420CD0621A2F336B
:10D190003B2A06D93C22200001F08EFF03E0CA5C46
:10D1A000E254013BFBD23C212000FFF773FE002339
:10D1B000A0872B6070BDC046807F00200122074BF6
:10D1C00010B560331A70FFF7D5FC002801D0FFF7C7
:10D1D00041F90322024B1A7510BDC046802D002074
:10D1E000002D0020074B0022190010B50831DA6429
:10D1F000CA874433FF321A70034A12791A71FFF753
:10D2000085FE10BD802D002000FC0300C02370B5FA
:10D210009B019D680E4B0F4E1A1DD16F1A009C6F1B
:10D22000D86FB6880832D68722185218DA641A00E6
:10D23000A526443216705A3616710122DD651C652A
:10D2400058659965044B1A75FFF760FE002070BDA4
:10D25000802D0020002E0020002D0020144B70B5E2
:10D260001C001A1DD56F134A443411782170D178EF
:10D2700090780902014318000830C187517A167A64
:10D28000907A0902D27A0E43000430431206024318
:10D29000DA64AA2222719A6F9D651A65DA6F5A655F
:10D2A0000122054B1A75FFF731FE002070BDC04604
:10D2B000802D002000FC0300002D002010B586B05A
:10D2C0001422002101A8FEF789FF00246B461C717F
:10D2D0000B4B99886B46D9800A4B18001A1DD26FE8
:10D2E0000830DA640492C1870122FF2144331A70A6
:10D2F0001971054B1A75FFF709FE200006B010BD25
:10D30000002E0020802D0020002D0020F0B5A94B1C
:10D310009BB09B7B05AD0EACAB70A74B06003022DB
:10D32000002120002B80FEF759FF02230122E67026
:10D33000092623700023228102AAB6183370A37035
:10D340006378E5601D2B00D9FEE00A271D2312201B
:10D35000BF1839003B808018FFF79CFC002800D0E4
:10D36000F2E02378022B03D13B8809221D2B06D93A
:10D3700063785A1E9BB21C2A00D93B88082206AD4E
:10D380006A703278DBB20232591C9B18DBB229700A
:10D390003370A278002A18D01B2B00D9D4E03800B3
:10D3A000FFF776FC002800D0CEE003221921337865
:10D3B000EA545A1CD2B2A9549A1C3988D2B2AA187B
:10D3C00011700433090A51703370E17800290BD0D1
:10D3D000022201203378EA545A1CD2B2A854DA1C33
:10D3E0000233DBB23270E9546268002A10D033781D
:10D3F0001C2B00D9A8E00021515602220A20EA5431
:10D400005A1CD2B2A854DA1C0233DBB23270E9548F
:10D410002389002B00D08DE0238A002B09D02B001C
:10D4200007220321009612A8FFF78BFC002800D0EA
:10D430008AE0238B002B09D02B00152214210096A3
:10D4400014A8FFF77EFC002800D07DE0216A0029A7
:10D4500000D07BE0656A002D26D028793378811CC6
:10D460009A1CC9B251181F2900DD6DE006AF0330C8
:10D47000F854FF20591CD2B2C9B2785432702988AE
:10D48000BA1804331170D8B2090A51703070AA88E2
:10D49000002A09D0A968002956D0381801F00CFEDE
:10D4A000AB8832789B18337019AB1B78002B34D0C3
:10D4B000A36A002B48D000260C2509277543A36AD0
:10D4C00006AA5D1902ABA988FF183B780331D15435
:10D4D000991CC9B239708C461621581CC0B211541F
:10D4E00061462888511808700433000A4870D8B281
:10D4F0003870AB88002B0AD0A968002924D01018F6
:10D500001A0001F0D9FDAB883A789B183B7019AB33
:10D5100001361B78F6B2B342CED8092302AA9B1873
:10D520001978002306A81A00FFF7B0FB00280BD1DA
:10D530001BB0F0BD2B0006220221009610A8FFF7B9
:10D5400000FC002800D167E7FEF784FF33789A1DBE
:10D550001F2AF9D80A88052AF6D9184FD01980B29F
:10D5600003901748844603986045EDD948880528FC
:10D57000EAD9C719BFB26745E6D9124FBA4201D0FE
:10D580008242E1D805221227EA54581C9A1CD2B2D2
:10D59000C0B22F5432700888AA181070000A507058
:10D5A0004A88191DC9B26D182A700633120A6A70AA
:10D5B00033704FE7002E0020301500007FF3FFFF8F
:10D5C0007DF30000FFFF000070B586B004000C2260
:10D5D000002103A8FEF702FE02230293002C06D0CE
:10D5E00002A8FFF789F8002801D0FEF733FFF020EA
:10D5F0008002FEF7F2FF0028F7D1164B164D3833A4
:10D600006B634823154A2B86154B16490D301A605B
:10D61000FFF7F2FB0028E8D12B0001263833163043
:10D620001E70FFF7E5FB041EDFD1010008226846EB
:10D63000FEF7D4FD6B461B7868461E436B4601948B
:10D640001E70FFF70BFA0028CFD1074BEB6206B034
:10D6500070BDC046002E0020802D002061D1030047
:10D66000802E002001CE030061CA0300F0B5130034
:10D67000050087B00E20002D22D02C88114A0638D4
:10D6800094421DD0104C2279002A19D0A17169460C
:10D6900010228F1D0321E371661D627102AC398077
:10D6A00020000021FEF79AFD2B8A21002380012310
:10D6B000A37000232888A38004970596FFF794FBA6
:10D6C00007B0F0BDFFFF0000802E0020030010B562
:10D6D00008001400032B1FD0042B24D100290BD0E9
:10D6E000114B1888114B98421DD01321FFF7A1F858
:10D6F000002818D0FEF7AEFE1000FFF7CFF8002884
:10D70000F8D10B4BDB68A3420DD10122032109485C
:10D710000830FFF7ABFFEBE70121FFF79EF801218F
:10D7200002000448F4E710BD642C0020FFFF000055
:10D73000802E0020002E002010B5040008000321D8
:10D74000FFF78BF8032102002000FFF78FFF00286E
:10D7500001D0FEF77FFE10BDF0B58FB003900878C2
:10D760000F00092835D801F03BFD49005000690041
:10D770000A0029004100C101CC016C00D301C24B59
:10D780000820DC1DE27F052A0CD1C04ADB6E12693D
:10D790009A4207D10623E377FFF71EFC002801D148
:10D7A0000723E3770421FFF758F8042102000398C8
:10D7B000FFF75CFF00280CD0FEF74CFEFFF7DAF90C
:10D7C0000028F9D1B04CE31DDB7F072B03D00423E5
:10D7D00023750FB0F0BDAE4B586EFEF7BBFE0028B0
:10D7E000EAD1636B98470028F3D0F0E7FFF7C2F95E
:10D7F0000028E1D10422A44B1A75EAE70122A34BC9
:10D800001A758A6812785A75E3E702229F4B1A75D7
:10D810008A681278012ADCD11869002800D09AE0C1
:10D82000994B0733DA7F042A00D094E00132DA778B
:10D830000221FFF712F802210200B8E70322934BFE
:10D84000DAE7924B1E7D022E67D0032E00D1A2E0B4
:10D85000012EBED10AAC102200212000FEF7BEFC32
:10D860003B7903220C2B54D1BF68884B38005E7D76
:10D87000FEF7D0FF0490381DFEF7CCFF05003800FE
:10D880000830FEF7C7FF0200049B26706360804BE0
:10D89000A5607433E06083CC83C31A60730701D53D
:10D8A000B30731D1049B06202B4313439B072CD194
:10D8B000049B5C19A418F022734B9201DC6695421C
:10D8C00029D8C02292019168F0229202521A944201
:10D8D00021D8704ADA62704A1A63F2070ED56F4A8D
:10D8E0005A630733DB7F0820012B0ED1FFF774FB4F
:10D8F00000280AD12000FFF79BF86AE7B20701D59C
:10D90000674AEDE7674AEBE706200121FEF7A5FF2E
:10D91000020001214BE70C20F7E70B7903221800E6
:10D92000104013420ED0190000251A1A0432D2B248
:10D930000C00BE680131C9B235559142F8D11B1AAD
:10D9400004333B71504BBD680733DA7F3C79032ABF
:10D9500003D0042A03D008206AE70422DA774B4E6A
:10D960003369002BF7D1FFF737FB002800D05FE7C2
:10D97000B37DA408A400E218402A0AD8300017306A
:10D980002200C018290001F097FBB37D1C19B47563
:10D990001FE709204CE70D792B003340354202D0B8
:10D9A0003200310003E7394A374C9365E36B002BB3
:10D9B00026D0202D26D82420013BE363636CA26B84
:10D9C00001336364A36C216D584310182F4A90658E
:10D9D00001229A400A432265072201331340B968A5
:10D9E0002A00A36401F068FB0721A36CA26B013B32
:10D9F0000B401D314B43D3181D62636C002B06D1C5
:10DA0000042100E00C210398FFF796FEE1E62425AF
:10DA10000721013B6364236C01332364E36C5D43A2
:10DA200001335519194A0B409565E3642A6A35425A
:10DA30005AD16418E37F032B23D00824052B15D17A
:10DA40009208124E9300069333690493049A069B3E
:10DA50009446634405930C4BDB6E0793079A059B32
:10DA6000934221D901230C245B423361074B986D0B
:10DA7000FEF714FF011E02D00398FFF75DFE2100A0
:10DA8000C1E70523E377DBE7002D0020802E00208F
:10DA9000802D002031CA0300E5D103000DD2030020
:10DAA0005DD20300BDD20300FFF796FA041E63D1D6
:10DAB000049BEB189B0717D1049B5F4900932A0036
:10DAC0000220069B096EFEF789FF041E54D1059BB8
:10DAD000F26D33613B7907999B18059A8A424ED1C2
:10DAE000F365B36DF36074E61024BFE7534B012177
:10DAF0001A00603211701900BA8866310A806233E8
:10DB000097E04E4B0022190060310A70663390E0B6
:10DB1000039B002B00D14FE61A88494B9A4200D153
:10DB20004AE646490B79002B00D145E610220E2625
:10DB30004D1DCB6D01274A710721180AEB70287122
:10DB4000180C1B0EAB7106AB0AACF6186970687145
:10DB5000318020000021AF70FEF740FB039B2100C5
:10DB60001B8AA77023800023A380039B0C96188830
:10DB70000D95FFF739F91DE6092C00D076E72F4CFB
:10DB80003D79E36DED18230060331B78E565002BCC
:10DB900000D11EE6230062331E88013EB6B21E800D
:10DBA000002E00D015E6270064373878431C053076
:10DBB000DBB2C0B204933B70FEF7B4FF049B132B9F
:10DBC00000D93E70039B002B00D1F5E51A881C4B51
:10DBD0009A4200D1F0E52379002B00D1ECE5112326
:10DBE0000E2763712B0AE3712B0C237206ABFF180F
:10DBF0000523A5712D0E65720AAD00213B80102210
:10DC00002800FEF7EBFA039B661D1B8A29002B8078
:10DC10000123AB700023AB80039B0C9718880D96F3
:10DC2000FFF7E2F8002800D0C6E52300663422881A
:10DC300062331A80CDE5C046002D0020802E0020E2
:10DC4000FFFF0000F0B52C4B8DB076331B780093AE
:10DC5000002B4ED1294C18222500683519002800C8
:10DC6000FEF7BCFA264F3E78002E35D025490937FD
:10DC700010221B3104A801F01FFA3800102204A959
:10DC8000019701F0F5F90127061E0FD10520FFF7D6
:10DC90003DFB1D4B2F70E3662E72A6671748683058
:10DCA000FEF7C3FD00281ED0FEF7D4FB019B08AE93
:10DCB0000293154B0420039303AB089302AB0A9322
:10DCC00037713773FFF722FB009B66672B700223C7
:10DCD0002B722823A367E1E70620FFF717FB2E70BE
:10DCE000E6662E72F5E7FEF71DFF0122024B763342
:10DCF0001A700DB0F0BDC046002D0020802E00200F
:10DD0000002F002030F30300022F0020F0B503881D
:10DD10000500BBB0122B56D01ED8102B2CD0112BC7
:10DD20003ED0AB4C226B002A0AD02B88502B00D15E
:10DD300089E04FD8102B00D182E0112B00D199E05F
:10DD40002888192800D902E10F2800D9EFE002281D
:10DD500000D19AE13BB0F0BD502BE2D19D4CC1887F
:10DD6000628A9142DDD1C38B022BDAD1431CDB7F67
:10DD7000DB0712D4984B1CE0964C828829002000C7
:10DD8000954B68307E331A801631082201F094F9E1
:10DD900000232370638A002BC3D1FFF737F9C0E754
:10DDA0008D4B01211A0049427E3211800022894C9C
:10DDB0002270986FFEF7CEFB0028B2D0E369002BEB
:10DDC000AFD09847ADE7811D82480822683001F046
:10DDD00073F9E2E7512BB3D1AA790192022AAFD1AC
:10DDE0002A89238B9A42ABD1AB7A043B022BA7D969
:10DDF000019B13AE0822002130001AAF3B70FEF7E2
:10DE0000EDF9019B320013930DAB7360A18B208958
:10DE1000FEF7E8FF002830D0636B002B00D0984756
:10DE2000FE233900FF332089BB80FEF70EFD00285A
:10DE300000D185E7636B002B00D181E798477FE72E
:10DE4000AB8823817CE7E988238A994200D077E771
:10DE50006020082302A909180B70EB8B02A904307B
:10DE600009180B702B00200020331C9308301AA9CE
:10DE7000904765E701235B42E3E702AB9A8D238974
:10DE8000D207CDD5B88039001800FEF7DEFC002897
:10DE9000D0D1EB1CD97F481E072844D801F08CF95B
:10DEA000041B25282A2C412E002333702B8C012B98
:10DEB00006D82000062201210830FFF7D7FBB6E77D
:10DEC000012333712B002333B36020003100236B17
:10DED0000830984734E7012333702A8C9A42F0D8EF
:10DEE0002000062202210830E7E702233370ECE726
:10DEF0000323FBE70423F9E70523F7E72B8C022B29
:10DF000004D82000032208210830D6E72A00233253
:10DF1000537811781B020B43B3805A4253410633A6
:10DF2000E4E70923E2E7200003220830C5E71038C0
:10DF3000092800D90EE701F049F9290037000DFF43
:10DF40005E00AE000DFF0DFF0DFFBC008D005228DE
:10DF500000D1AEE0552870D0512800D0FAE6AB7958
:10DF6000002B00D1F6E6AA7A043A022A00D9F1E69B
:10DF7000022B00D0012302AA1371C1235B0013817D
:10DF8000164B03A91888FEF760FC52E00120FEF74B
:10DF9000C9FD0020FEF7DCFDAA88104B1A80002284
:10DFA0000D4B76331A70D5E602AB9D1C80230B4CCB
:10DFB00001202B804E3B6360FEF7CAFD01232A003F
:10DFC00020881AA9FEF745FC002809D0FEF742FA7E
:10DFD000002E0020802D0020002D0020642C002029
:10DFE0004C4B75331B78002B01D1FFF72BFE01231F
:10DFF0005B422380AEE6484C0722A11C0BA801F02F
:10E000005BF8210007AE10220931300001F054F80E
:10E01000210013AD1C221A31280001F04DF8220016
:10E020003E4B852118883E320DAB11961095FEF7B8
:10E0300006FC002800D18DE6C8E7AB79002B00D0A4
:10E0400088E60220FEF76EFD344B13211888FEF798
:10E05000F0FBEEE7AD79002D00D07BE60320FEF764
:10E0600061FD2C4C2D4A230076331D705368013B13
:10E070005360002B06D1FEF77DFD0028A6D10323B7
:10E08000237567E6FFF7DEFD64E6244B0021188860
:10E09000FEF7E1FBCDE7204AE889938D0021984205
:10E0A00001D111001A310023A8880932FEF7C9FBFB
:10E0B000BFE71A4B1A4D1C88AC4200D186E7164BBD
:10E0C000197800291FD036331900082201232000B7
:10E0D000FEF7BDFB011E00D078E7020002232000FE
:10E0E000FEF7B5FB002800D070E72A000C212000C5
:10E0F000FEF7A9FB02220B4BC318934300D129E67C
:10E10000082896D126E60B000A002000FEF79FFBA8
:10E110008FE7C046002D0020002F0020642C002037
:10E12000FFFF0000FECFFFFF0023F7B5244A254D77
:10E1300053649364D3641365536093606E6C721C74
:10E140003BD0214A2149224F8C583A680193A41AA6
:10E150002402240A24217143BB6859184B68A34246
:10E1600013D8019AE41AD318AA6C0E6A01938B692A
:10E17000C969002A05D018009047002803D0FEF78F
:10E1800069F908009847731CE4D12A002B004C322F
:10E190004D3311781B788B4204D10133DBB2022B53
:10E1A0000CD013702B0080224C331B7852039B0041
:10E1B000ED18019B2B65074B5A60F7BD0023F0E774
:10E1C000FC100140002F0020040500000010014059
:10E1D000002D0020FCE100E0F0B5AF498FB00B68E6
:10E1E0000893AE4B1C0018004C34257800245A6C60
:10E1F0004D300992027801940294954214D0013274
:10E20000D2B2022A00D1B7E002701A004D32127861
:10E2100092009A18126D01920198089A121812022F
:10E22000120A0A60012202921A000024242658329F
:10E230001278593303920A691B7804928A680D9305
:10E2400094460A68099B0A92039A0C940092009AD9
:10E25000013AD2B20092FF2A00D08FE00C9A002A35
:10E2600006D08E4A0D99593211708B4A0A99116065
:10E270008A4A002C00D05364536C029A002A00D0C2
:10E2800002E1099AD31A5A1E9341DBB20293012389
:10E290005B420093814B5A6C59331B7811000893F1
:10E2A0007D4B07921B68019300230593039B013B61
:10E2B000DBB20393FF2B00D0FAE0059A774B002ADC
:10E2C00000D059645A6C079B934202D1029B002BE9
:10E2D0004CD0531C00D16BE12423534363445B684F
:10E2E0006F49704D00934C59019A6B4EA21A12025D
:10E2F0003079120A033200281FD18020D127400232
:10E30000BF00C851403FC851C02380276648BF02A4
:10E310005B00C750076001272F200F600138C046FF
:10E32000C046C046C046C046C046C046C046C046BD
:10E33000C046C046C046F1D13771009B934200D21F
:10E340001300019A9B18A8221B021B0AD2008B50B3
:10E350004A591B1B121B1202120A1B0203321B0A10
:10E360009A4203D98022514B92025A6000224B4BB1
:10E3700059331A700FB0F0BD047046E7009A049943
:10E38000D2008F188A5C7978914200D15FE718211A
:10E390005143786801324118B878D2B2904200D126
:10E3A0000022087802280AD000210328EBD1581C4B
:10E3B000E9D073436344197501241B6AF7E7496880
:10E3C0000591714361440B91087D0028DBD0190051
:10E3D00006930AE035004D4365440795059D8D423F
:10E3E00000D1E8E006910799096A4D1CF2D120009E
:10E3F00000210B9C21750400C5E7734363441B6A2D
:10E40000591C06D10121264CA16000210C900D90D1
:10E410000A9107990D6A4C680699714361440D622F
:10E42000691CE5D07543654469680C196C60DFE7C9
:10E4300032005A4362445568019FBD4207D9002902
:10E4400001D016494B64019BED1A556022E70199F2
:10E450004019491B1569176A019154601475002D04
:10E4600008D00899D56009180902090A9160009935
:10E47000009311623B0002995A1CD9D1002900D1A6
:10E4800008E7064A536405E70122002152420800CA
:10E4900024260C000092EFE7002D0020002F002022
:10E4A000001001400405000000E100E0FCE100E094
:10E4B000039BDA00049B9A18009B013327D10027A5
:10E4C00056781378B34200D1F0E6182058435468C8
:10E4D000013320189478DBB213709C4200D117707E
:10E4E0000378012BEDD144682333634363441D7DDE
:10E4F000002DE6D186689E60C668DE6006691E61F2
:10E500004069D8610898002808D09D6006E024235F
:10E510000098434363440400186A00909868019D82
:10E52000284F451B2D02DE682D0ABD4219D8AD19B2
:10E530005D60002001269860D86001381E75186261
:10E540004B1C0CD02425242365434B436544634472
:10E5500068685F68B84228D8381A586029620596FA
:10E5600021E0019D281A0002000AB04202D2301AAE
:10E570005860DEE70020FBE7366AC01B0693771C75
:10E580000AD0330024265E43664477688742F3D37B
:10E590003F1A77601E00069B686024204343634453
:10E5A0002E621C620C00210086E70B000691E9E751
:10E5B000FDF78AFFDAE60599069DA94200D11CE71E
:10E5C000200026E7FEFF7F0070B5C12580260024CD
:10E5D000AD007602A30018000B4A41309B181A6860
:10E5E000FF3080B2002A0BD0084A51593200A240B5
:10E5F000114205D000221A60054B1A6ED96D904762
:10E600000134042CE6D170BD4091004000900040E0
:10E61000002F00200323064A5B429E4502D1EFF300
:10E62000098101E0EFF3088188690238007810471A
:10E6300075D1030070B51B490B68DBB2012B03D108
:10E64000194803681B0700D070BD184AF0231468EE
:10E65000E02625001D40344221D1154C24681C427F
:10E660000DD1144B144C1C608024144B24021C60EC
:10E670000B68DBB2012BE7D103681B07E4D11368F9
:10E68000F0221340402BDFD1094B1B681342DBD132
:10E690008022C1230121D205DB00D150D4E7302DE7
:10E6A000DBD0ECE7E00F00F0E40F00F0E80F00F043
:10E6B000EC0F00F004050040DFFF07C0186C0040BD
:10E6C00010B5084B1B68002B04D09847002808D0D1
:10E6D000FDF7C0FE044B38331B78002B01D0FEF74A
:10E6E00092FB10BD802E0020802D00208022F0B5EE
:10E6F0009E4BD205D1589BB00191B12901D1002187
:10E70000D150F0239A4A9B0212689A4201D0FDF739
:10E71000A1FE80235B051A698023DB009A42F6D1B3
:10E720000024FDF7D1FE934A934B94489364944B95
:10E7300003215D1DEC771D0038351C7083602C7043
:10E740001C751D005C331C7013004835583319705C
:10E750002C702300052501738A49009401618A48C1
:10E76000009C486001340B704B708D7078300094C1
:10E770000831032CF4D101214942516411004D317B
:10E780000B7011008025C020C5264C310B707F49CD
:10E790006D0340000D50B6008859C021FC34A043E1
:10E7A00001437A487A4C81510560C4250100F53651
:10E7B0007848FF368351AD0049592140C0242402D6
:10E7C0002143724C6151744D6C494059AC4608600C
:10E7D000A020724DC005435104354351704D435143
:10E7E0002C3D43516F4843516F4D435104354351C4
:10E7F0006E4D4351043543516D4D435104354351E2
:10E800006C4D43516C4B1878002880D1C225AD0067
:10E81000635921005E4C2340C024240223434B5102
:10E82000C0248023654D9B0064000B510B60D065B4
:10E8300015666246624964468D58012295430D5122
:10E840008D59009CA543A2248D51E4000D590E0062
:10E850000F218D433551584DF0312A701D00345928
:10E860000C40E540142431006C43F558554E6409C2
:10E870003540CD50CD582A43CA5080220533FF334E
:10E880005202CA50A823DB00CC5004003B4BD86591
:10E890004D4B1880987020000134FEF745F80A2C83
:10E8A000F9D1FF220023494C920222640122334D08
:10E8B000E363AB652F4B5A66454B6B65FDF7C8FEAE
:10E8C000002800D187E3FDF774FF002800D183E022
:10E8D0006423002B00D028E313A8FDF7C7FE169E83
:10E8E000002E24D0199B00938023009A5B01F3181B
:10E8F000934200D849E31300364A94466344029396
:10E900005B080393C0239B019B689E4200D91DE3D3
:10E9100001230298984380235B01C118009B321A9F
:10E920001818039BFDF714FF002800D0EFE6FDF751
:10E9300040FF002800D0EAE613A8FDF797FE179ADB
:10E94000002A64D0169B002B00D02BE3C0239B0130
:10E950009B68002192080EA80E910F931092FDF76C
:10E96000CBFE002800D0D2E651E0C0461C050000D6
:10E9700014100010002F00203DD10300002D0020B6
:10E98000682F0020D42F0020EC2F002000E100E0B1
:10E99000FF00FFFF001001400405000034070000E5
:10E9A0003C07000004000050140700001C07000092
:10E9B000240700002C070000742D0020C9CB0300A1
:10E9C00000900040FEFEFFFF18340020802D002044
:10E9D000DFC5030000F0FFFF13A8FDF747FE179AFD
:10E9E000002A14D0169B002B00D09BE2C0239B0171
:10E9F0009B6803210E91F021920889020EA80F91C5
:10EA000010931192FDF778FE002800D060E701987E
:10EA1000B138431E9841C0B2FEF7D6FDFEF76EF83E
:10EA2000E94AEA4B1178A52900D0BEE2190000227C
:10EA30000831CA87DA641A00FF21443211701A00C3
:10EA4000FF214432117100221A655A659A65E04B24
:10EA500001321A75FEF75AFAFDF7D0FD019BB12B72
:10EA60000AD0C0239B019B681B68013304D0FEF7CA
:10EA70002BFA002800D000E20020D64BD64E987525
:10EA8000726ED64B9880D24B022A00D1ADE2511C57
:10EA90005A6671669200D2499A185165C022920155
:10EAA00092689A669A68824200D130E6197B130018
:10EAB000884200DB2BE61A0024331C00243C247817
:10EAC000002C00D095E20123F0211380C54BBF4CF0
:10EAD000936189036066FEF735FA002800D016E6D8
:10EAE0000122BC4B28641861EB1DDA772B007533CB
:10EAF0001870B84B68641875BB4BA864A362BB4B15
:10EB0000E864AB62BA4B2865AB630823EB63B94D8D
:10EB10003C212800FEF7BEF9AB8F0400984208D1D3
:10EB20003C222900B01C00F0C7FA01220134AC8756
:10EB300032701123B04C0AAD20002B7000F00EFB98
:10EB4000210082B22800FDF778FE041E00D0DEE529
:10EB50000EAE010008223000FDF740FB0C22C82356
:10EB600032805B00921830007280B480F380FDF731
:10EB700062FE011E00D0CAE50C2207A8FDF72EFB9D
:10EB80009E4B042108939E4B04A809930123818185
:10EB900092489C495B4203812B311022280000F0EF
:10EBA0008BFA994B04A88380811D2800FEF71EF97B
:10EBB000002800D0ABE589480C30020005A8010010
:10EBC0000120FEF70BF9051E00D0A0E504A883790B
:10EBD000824813AC290083731C222000FDF7FEFA43
:10EBE0000421237865600B437C49E56025616561FC
:10EBF000A56123708B7B04A98B72844B03220B814C
:10EC000004A82900FDF7EAFA112304A90D704B703E
:10EC10008B781F2103208B43034304A98B7014229C
:10EC200029003000FDF7DAFA06A9316004A9716005
:10EC3000142110953561764DB18108352B00674D53
:10EC40003200A8892100FEF7CBF8051E00D05EE552
:10EC500001001C222000FDF7C1FA1822237865600C
:10EC6000934313435D4AE56025616561A5612370A7
:10EC7000937B04AA9372674B2900138104A8032293
:10EC8000FDF7ACFA11231F2104AA15705370927876
:10EC900002338A43134304AA2900937030001422DC
:10ECA000FDF79CFA172306AA326004AA72604B4A49
:10ECB00010951832B3811300484A356190892100BC
:10ECC0003200FEF78DF8051E00D020E501001C2261
:10ECD0002000FDF783FA02222378656013433F4A40
:10ECE0002370E56025616561A561937B04AA937239
:10ECF000494B2900138104A80322FDF76FFA112361
:10ED00001F21032004AA1370937855708B4303438B
:10ED10009370290014223000FDF760FA022206AB3E
:10ED2000336004AB736007AB1092B28133612B4A3E
:10ED30002A4B9089210032002833FEF751F8002831
:10ED400000D0E4E4089B0093009A244B1A63099BCB
:10ED5000002B01D0214A536301221E4B13AC1A71C0
:10ED600000211B322000FDF739FA2C4B00211493AF
:10ED70008023DB011593032313912373284B134D39
:10ED80009C46E1812174199318912B1D45CC45C3F4
:10ED900045CC45C3624628001A602B0020307033F2
:10EDA0001970FEF719F8002800D0B0E4084A0121D4
:10EDB000130049427E33198093682870002B00D1DC
:10EDC000A5E4117B2EE0C04600FC0300802D00204E
:10EDD000002D0020802E0020002F0020002E00207B
:10EDE000FDC60300BDD103000DDD0300CDD6030039
:10EDF000A8310020807F002028F3030059D70300AA
:10EE000091C8030030F303003015000032150000F4
:10EE1000082E00203115000034150000CD0C000034
:10EE200097C80300884200DB71E41C0024331D00F6
:10EE3000243D2D78002D00D0DDE001232380906754
:10EE40003F226E496E4B3E31A3610B7893431A000B
:10EE50000C2313430B7007234B7009338B70FEF7A1
:10EE6000F1FEFDF7CBFBC0239B019B681B680133C0
:10EE700056D0FEF729F8002852D0FDF7E9FB00280C
:10EE80004ED1802201255F4E5C4B5F4C9200E267C1
:10EE900018663561B3585D490B40B350C2238022D8
:10EEA0009B005202F25080229202F2508022D20243
:10EEB000F25080221203F250554B74331870FDF754
:10EEC0008AFB002800D022E4524B1A682B008340B2
:10EED000134200D0E36701302028F7D1C024A401F9
:10EEE000A068FDF77AFB002800D010E4A36818683A
:10EEF00080F308885868FF2464B2EFF30585002D7D
:10EF000001D1A6460047251C061C21273FBAF0B4B4
:10EF10000024002500260027F0B4F92040B2004765
:10EF2000FDF798FA19995B1863E53B48013B0138F6
:10EF3000C046C046C046C046C046C046C046C046A1
:10EF4000C046C046C046C046F1D1C2E4802101227D
:10EF5000039B49015B180EA80E920F931093119218
:10EF6000FDF7CAFB002801D0FFF7D1FB8023012267
:10EF70005B010EA80E920F9310931192FDF7BCFB4C
:10EF8000002801D0FFF7C3FBC2E401230E93009BCE
:10EF9000B2080F9380230EA85B0110931192FDF726
:10EFA000ABFBC1E419995B18D3E420004430017035
:10EFB000D17890780902014320000830C187517A46
:10EFC000167A907A0902D27A0E4300043043120670
:10EFD0000243E26433E50198B138431E9841C0B260
:10EFE000FEF7F2FAFDF78AFD38E50733D877FFF729
:10EFF0008EFB01305CE5013014E7C046002F002095
:10F000006DCD03000090004004E100E0F0F0FFFF50
:10F01000002D002000E100E0E703000003210A4882
:10F0200002680A430260094802680A43026008490C
:10F03000084A094B9B1A03DD043BC858D050FBDC3F
:10F040000648804706480047240500405405004014
:10F0500074F30300002C0020702C002035E6030020
:10F06000CDC00300FEE7FEE7FEE7FEE7FEE7FEE7B2
:10F0700030B5032A0CD903000B439B0719D1036851
:10F080000C68A34215D1043A04300431032AF6D89F
:10F09000551E002A0BD0002303E05A1C9D4206D0C7
:10F0A0001300C25CCC5CA242F7D0101B00E0002031
:10F0B00030BD551EEFE7C046F0B5C64600B50F2A75
:10F0C00041D903270D003E0005430C0003002E40EC
:10F0D0002F423DD11500103D2D09A8462D01AC460B
:10F0E000844427681D001F6067685F60A7689F6091
:10F0F000E7681034DF6010336545F2D145460F23D1
:10F100000C2401352D01491913404519144222D010
:10F110008C59AC5104369C1B032CF9D8043B9B083A
:10F1200001339B00ED18C91803231A40561E002A0C
:10F1300006D00023CC5C1A00EC5401339642F9D17E
:10F1400080BCB846F0BD0500561E002AF1D1F7E795
:10F150000500561EEDE71A00F6E7C04610B5830716
:10F160000AD00300032102E001330B4205D01A78D4
:10F17000002AF9D1181A10BD030019680C4A0D4C69
:10F180008A188A4322420FD15968094A04338A18DF
:10F190008A43224208D15968054A04338A188A43AF
:10F1A0002242F1D000E001331A78002AFBD1E1E7D6
:10F1B000FFFEFEFE8080808002B47146490849004F
:10F1C000095C49008E4402BC7047C04603B47146D6
:10F1D000490840004900095E49008E4403BC70475D
:10F1E00003B47146490840004900095A49008E4459
:10F1F00003BC7047002243088B4274D303098B423F
:10F200005FD3030A8B4244D3030B8B4228D3030CF6
:10F210008B420DD3FF22090212BA030C8B4202D398
:10F220001212090265D0030B8B4219D300E0090AC0
:10F23000C30B8B4201D3CB03C01A5241830B8B42C9
:10F2400001D38B03C01A5241430B8B4201D34B03B2
:10F25000C01A5241030B8B4201D30B03C01A524117
:10F26000C30A8B4201D3CB02C01A5241830A8B429C
:10F2700001D38B02C01A5241430A8B4201D34B0285
:10F28000C01A5241030A8B4201D30B02C01A5241E9
:10F29000CDD2C3098B4201D3CB01C01A524183099D
:10F2A0008B4201D38B01C01A524143098B4201D3D7
:10F2B0004B01C01A524103098B4201D30B01C01A02
:10F2C0005241C3088B4201D3CB00C01A524183087C
:10F2D0008B4201D38B00C01A524143088B4201D3A9
:10F2E0004B00C01A5241411A00D201465241104609
:10F2F0007047FFE701B5002000F006F802BDC046E8
:10F300000029F7D076E770477047C046F8B5C04689
:10F31000F8BC08BC9E467047F8B5C046F8BC08BCAF
:10F320009E467047042C0020446675546172670045
:10F33000000204131211100F0B0E0A0C0103171513
:10F34000000016181405060708090D00000000004B
:10F35000000000000000000000000023D1BCEA5FB4
:0CF36000782315DEEF1212000000000000
:08F36C0054CDFF7F01000000F9
:10F37400042C002000000000000000000000000039
:10F384000000000000000000000000000000000079
:10F394000000000000000000000000000000000069
:10F3A4000000000000000000000000000000000059
:10F3B4000000000000000000000000000000000049
:10F3C4000000000000000000000000000000000039
:10F3D40000000000FFFF0000320000000024F400E1
:10FC000000000000000000000000000000000000F4
:10FC100000000000000000000000000000000000E4
:10FC200000000000000000000000000000000000D4
:10FC300000000000000000000000000000000000C4
:020000020000FC
:020000041000EA
:0410140000C0030015
:040000033000F01DBC
:00000001FF
