:020000023000CC
:10C00000807F002029F7030071F7030073F7030016
:10C010000000000000000000000000000000000020
:10C02000000000000000000000000000D1E5030057
:10C03000000000000000000077F7030079F703001C
:10C040007BF703007BF703007BF703007BF703001C
:10C050007BF70300000000007BF703007BF7030081
:10C060007BF70300B1E403007BF703007BF70300D9
:10C070007BF703007BF703007BF703007BF70300EC
:10C080007BF70300E1C403007BF703007BF70300A9
:10C09000A1C503007BF70300D9F603007BF703007B
:10C0A0007BF703007BF703000000000000000000A6
:10C0B0000000000000000000000000000000000080
:10C0C000164B002B00D1144B9D46402292029A1A27
:10C0D000924600218B460F461348144A121A00F06C
:10C0E00067F80F4B002B00D098470E4B002B00D069
:10C0F00098470020002104000D000D48002802D0C0
:10C100000C4800E000BF00F02DF82000290002F0EC
:10C11000FDFA00F011F8C04600000800807F002002
:10C120000000000000000000682C00207C3400208B
:10C130000000000000000000084B10B5041C002B9C
:10C1400002D0002100E000BF054B1868836A002B75
:10C1500000D09847201C00F033F8C04600000000D3
:10C16000A0F8030070B50E4B0E4D0024ED1AAD1073
:10C170001E1CAC4204D0A300F35898470134F8E7E2
:10C1800003F080FB084B094D0024ED1AAD101E1C76
:10C19000AC4204D0A300F35898470134F8E770BDCF
:10C1A000682C0020682C0020682C0020682C0020BF
:10C1B000031C8218934202D019700133FAE77047CA
:10C1C000FEE7C046BFF34F8F024A034BDA60BFF36E
:10C1D0004F8FFEE70400FA0500ED00E036DF704700
:10C1E00037DF7047032310B51340041C0720002BD2
:10C1F00010D109480260481CC00080B212180748DC
:10C200000260074A181C1370064A1370064A14800D
:10C21000064A118010BDC046682C00206C2C0020FE
:10C22000732C0020722C0020702C0020742C002015
:10C23000F0B5464B85B001921A8800900C1C09207D
:10C240008A4200D27FE06E4600230F363370404BA7
:10C2500004275A68D205D20D20D0103AD3B259B271
:10C2600000290DDA0F221A40083A3A499208920042
:10C270005218032152680B408B40DA40131C08E02F
:10C280008908C031344B8900CB5803210A408A40C9
:10C29000D340DBB29B09DFB2012F0CD0301CFFF77B
:10C2A0009DFF022801D172B605E0002803D00021CD
:10C2B0000A1CFFF787FF294B294A1B781088DBB23D
:10C2C0009C46284B00221978C9B2814201D24A1CEF
:10C2D000D2B2254D624509D01D781978EDB2C9B2A8
:10C2E0000022814201D24A1CD2B21A70012F0BD017
:10C2F00062B63078FFF774FF0223021C9A4303D022
:10C3000000210A1CFFF75EFF174B04209D421AD044
:10C31000164FEE003968019A8B1900991A600029AE
:10C320000FD0002C0DD0094A114B1088221C454318
:10C330001868401903F095FA3B6800209E19B480F4
:10C3400001E00020988005B0F0BDC046702C0020B0
:10C3500000ED00E018ED00E000E100E0722C0020AC
:10C36000742C0020732C0020FFFF0000682C00209C
:10C370006C2C002010B5104B10491A7809789142A6
:10C3800019D00F491A7818780C88C0B2D2B200219F
:10C39000844201D9411CC9B219700A49D300096805
:10C3A000CB180949088809494243086899888018C8
:10C3B0001B689847DFE710BD722C0020732C00200B
:10C3C000742C0020682C0020702C00206C2C002085
:10C3D00010B54378827801339A1A541EA241524212
:10C3E00013400278934206D00B60437818225343DF
:10C3F0004068C01800E0002010BD0000164B02206D
:10C400005A68D205D20D26D0103AD3B259B20029BB
:10C410000DDA0F221A40083A1049C24082405218E1
:10C42000032152680B408B40DA40131C08E0890856
:10C43000C0310B4B8900CB5803210A408A40D340BE
:10C44000DBB29B09DBB20020012B04D0033B584236
:10C4500043410220C01A704700ED00E018ED00E0F3
:10C4600000E100E01A4B80229202DA67D221194BD8
:10C470008022520289005A50C22189005A5001215B
:10C480002F225960101C0138C046C046C046C04625
:10C49000C046C046C046C046C046C046C046C0466C
:10C4A000F1D199600C4900230B60101C0138C04683
:10C4B000C046C046C046C046C046C046C046C0464C
:10C4C000C046C046C046F1D1044A13707047C0460A
:10C4D00004E100E000100140782C0020A02C002096
:10C4E000F8B5244A002353649364D36413655360FE
:10C4F0009360214A1468621C3AD0204A20491E1CCD
:10C500008D58204A1268AD1A2D022D0A2422544358
:10C510001D4B1A68121953689D4215D3ED1AF6186F
:10C520001A4B146A1B689769D169002B08D0381C14
:10C530009847002806D000210A1CFFF743FE01E0BF
:10C54000081CB847631CE1D1114B1978114B1A78BC
:10C550008A4205D10132D2B2022A00D100221A70D9
:10C560001A780D4B9200D65080220C4B52035A6021
:10C57000F8BDC046FC100140902C002004050000CE
:10C5800000100140782C0020802C00207C2C002002
:10C590008C2C00208D2C0020982C0020FCE100E049
:10C5A000F0B5B6498BB00868B54B0390B5481A781A
:10C5B0000078904211D00132D2B2022A00D100227A
:10C5C0001A701A78B04B9200D258039C01251319A7
:10C5D0001B021B0A0B60019501E000220192AB4B8C
:10C5E00009681B6806910893A94B08991B78059365
:10C5F000A84B059E1B6802960993A74B1C68A74B86
:10C600001B780793029B013BDBB20293FF2B5BD0AD
:10C61000029F0998FD0045192B7868789842F1D05F
:10C62000182058436E6801333018AE78DBB2F61A22
:10C63000771EBE41764233400678022E02D0032E8A
:10C64000EBD138E047682420784320180490007D1F
:10C65000BC460028E1D0081C0091471C27D02427A5
:10C66000604504D04743E7190090386AF5E7009E1B
:10C6700086420AD179436118096A4E1C05D1884F58
:10C680000126BE60079600260696242778432018C8
:10C690004668006AB446009E7E43A6193062461C76
:10C6A00005D07843201847683E1C66444660049EC7
:10C6B00000203075B1E74F1CAFD02420414300204B
:10C6C00061180875096AF6E76C4B06986F4E18609A
:10C6D000079C724B019D31601C70002D09D1089E92
:10C6E000891B4B1E99410123C9B25B4203910293FE
:10C6F0002DE0694B00201B68019301235B420293EC
:10C700004D1C20D024234B43019FFB185C68A242A0
:10C7100005D2A21A012031605A60039017E0121B63
:10C72000001900245C601C751C691F6A002C08D06D
:10C73000039DDC602D18029C2D022D0A9D601C6259
:10C740000291391CDCE7514B0126196003964F4BCF
:10C750001B6806934F4B1B6808934F4B1F684F4B4A
:10C76000BC461B780493454B1B680793069B059AB0
:10C77000013AD2B20592FF2A00D195E00598089AB5
:10C78000C10051180298013007D0029C2422624354
:10C790006244156A201C029526E00A784878904287
:10C7A000E5D0182454434E6801328878D2B2341947
:10C7B0000A70904201D100220A70227860681D1C24
:10C7C000012A59D1242242436244167D002E53D1BE
:10C7D000A7689760E568D560276917616469D461C7
:10C7E000049C002C00D09660079F9568D468EE1BCF
:10C7F0002C4F3602360ABE4201D8341908E0079E93
:10C80000751B2D022D0AAC4201D9641B00E00024E7
:10C81000546000249460D46001241475644214624E
:10C820002424251C454365445F1C24D05C43644498
:10C830006A686668B24202D901931C1C09E0B21A08
:10C8400062602B6217E0366AD21B771C0BD0019412
:10C85000341C2426664366447768BA42F3D8BF1A6C
:10C860007760261C019C6A602422624362442E6227
:10C8700010621D1C00E0051C2B1C83E7782C002097
:10C880008C2C00208D2C0020982C0020902C002037
:10C89000842C0020882C0020802C0020942C002048
:10C8A00000100140FEFF7F002F4A069913608B4263
:10C8B00002D1039A002A52D05C1C4ED024214B4353
:10C8C0002A4A2B4812682B49D3185C682A4B0968FE
:10C8D0001A582A4D571A3F023F0A2E7803370197FC
:10C8E000002E20D18020D1264002B6009851C126CA
:10C8F000B6009851C02722488026B6027F00C65154
:10C90000066001261E602F200138C046C046C04682
:10C91000C046C046C046C046C046C046C046C046E7
:10C92000C046F1D12E70019FA74200D2271C7F186C
:10C930003F02A8213F0AC9000D485F501B589B1AAF
:10C940001B021B0ABA1A12020333120A934206D9B7
:10C9500080220C4B92025A6001E0FFF783FD0A4BE4
:10C9600000221A700BB0F0BD902C0020802C00200B
:10C9700004050000782C002000100140A02C0020AD
:10C9800000E100E0FCE100E0942C0020F7B5032773
:10C9900001900D1C161C1C1C1F400720002F52D19B
:10C9A000002B50D0FFF75EFD274B089A1A60274BEB
:10C9B0001D70274B1C60231CAF4205DA00221A7041
:10C9C0001A7501372433F7E724235D43214B0320F5
:10C9D000182118707143204B64191C60231C1833F4
:10C9E00000220138636022706270A6705B18083400
:10C9F0009042F5D1194B012252421A60184B802205
:10CA00001870184BC0211870174B520349005A5028
:10CA1000C52189005C58FF25AC43C0252C435C50E0
:10CA20001A60019C114AA121C9005450C4218900F7
:10CA30005D580F4C2C40C0252D022C435C500D4BF3
:10CA4000D2580D4B1A60FEBD7C2C00208E2C00208D
:10CA5000802C0020842C0020882C0020902C00208A
:10CA60008C2C00208D2C002000E100E00010014003
:10CA7000FF00FFFF04050000782C0020F0B5114BEB
:10CA80001C68002C1AD0002A1AD0002818D00E4B8F
:10CA90001F780023BB420FDA251C2434261C243EB9
:10CAA0003678002E06D101242C706970AA610360CB
:10CAB000301C06E00133EDE7042002E0082000E02E
:10CAC0000720F0BD802C00208E2C0020F0B5204BDC
:10CAD00085B001921A68051C0C1C002A34D01D4B2D
:10CAE00007201B789D4230D204292ED924236B4382
:10CAF000D3181A780820012A27D15B78012B01D09E
:10CB0000002700E00F1CFFF779FC134BC0001E68E4
:10CB100003A93618301CFFF75BFC031C0420002B14
:10CB200013D001221A700D490D4A5D608A58DC60ED
:10CB30009A60019A1F615A61039B80227370094BAE
:10CB400052035A60002000E0082005B0F0BDC04646
:10CB5000802C00208E2C0020882C0020001001400A
:10CB600004050000FCE100E037B5154B041C1A6811
:10CB7000002A22D0134B1978072388421ED224237F
:10CB800043439A5C0823012A18D1FFF737FC0E4B68
:10CB9000C0001D6801A92D18281CFFF719FC0423EB
:10CBA00000280BD002230370019B446080226B702D
:10CBB000064B52035A60002300E00823181C3EBDB8
:10CBC000802C00208E2C0020882C0020FCE100E02E
:10CBD00010B5041C082904D00020011C021CFFF71A
:10CBE000F1FA60682368984710BD000007B5044A51
:10CBF0000090019168460821FFF71AFB0EBDC04660
:10CC0000D1CB030048DF704711DF704713DF704757
:10CC100008B5FFF7F7FF002803D000210A1CFFF733
:10CC2000D1FAFFF7A7FB034B1B78023B022BF0D88E
:10CC300008BDC046A12C002008B5074B1878012874
:10CC400002D1022900D11970002A04D00021101C41
:10CC50000A1CFFF7B7FA08BDA12C002010B50C4C38
:10CC60001C21201C01F049FB002803D000210A1CD4
:10CC7000FFF7A8FA201C07491C22002301F02CFB17
:10CC8000002803D000210A1CFFF79CFA10BDC04603
:10CC9000C02C0020A42C002007B50368013301D16B
:10CCA000002017E001A800F051F9019B1A78012A31
:10CCB000F6D159880022914206D0C02189018868A6
:10CCC000996800F067F9021C019B5888801A42425B
:10CCD0005041C0B20EBD000084B0F0B5051C85B057
:10CCE000C4B22D0C0A9003A801950F1C0B91161CC1
:10CCF0000C920D931D1C00F029F9002C08D1364B25
:10CD0000019901225980FF219D601A7019713EE03E
:10CD1000012C13D1304B019A0E995A80F2195219F5
:10CD20009A60A5221A70FF221A71DF601E615D6190
:10CD300099612A4B1C70FFF791FF48E0032C0DD13D
:10CD4000039A254B117819705188926859809A601E
:10CD5000AA221A71DF601E615D6117E0022C19D1F1
:10CD6000039A1D4B1178A52905D100225A809A609B
:10CD7000FF221A7004E019705188926859809A60F5
:10CD8000FF221A710022DA601A615A610122134BE4
:10CD90001A70D0E7052C09D100F054FF002803D009
:10CDA00000210A1CFFF70EFA03220EE0042C09D121
:10CDB000094B00225A809A600399FF221A700A795F
:10CDC0001A71B8E7062C02D10422044B1A7005B080
:10CDD000F0BC08BC04B01847A42C0020A12C0020F3
:10CDE0001FB5002101A80C22FFF7E2F9074B0193C0
:10CDF00001F03AFA002806D10549FF239B0201A859
:10CE00004B6001F055FA05B000BDC04639CC0300B7
:10CE1000C02C002010B500F0F1F9002805D100F079
:10CE200071FE041CFFF7F4FE201C10BD10B5FFF7C7
:10CE3000EBFE002803D000210A1CFFF7C3F90D4BBD
:10CE40001968002301229A40114201D00A48C267A2
:10CE50000133202BF6D1C024A401A068FFF7D6FE31
:10CE6000002803D000210A1CFFF7ACF9A06800F0ED
:10CE700073F810BD00E100E004E100E007B501A88F
:10CE800000F064F8019B1A78A52A05D01879AA3811
:10CE900043425841C0B200E001200EBD10B500F081
:10CEA000BDFB00280BD0642001F0F4F800F032FB49
:10CEB000002809D000210A1CFFF784F904E000F0E3
:10CEC0008EFB021EEFD111E000F0A8FB002803D07A
:10CED00000210A1CFFF776F900F066FB0022041E11
:10CEE000944203D0111CFFF76DF9221C101C10BDD9
:10CEF00010B588B003AC201C00211422FFF758F9AC
:10CF00000223237000230093043403980ECCFFF710
:10CF1000E3FEFFF77DFE002008B010BD13B5041C32
:10CF200001A800F013F8019B1A7822705A886280D9
:10CF30009A68A2601A792271DA68E2601A6922613D
:10CF40005A6962619B69A36113BD0000014B0360D4
:10CF50007047C04600FC0300F0B5031C186880F35E
:10CF600008885868FF2464B2EFF30585002D01D1CD
:10CF7000A6460047251C061C21273FBAF0B4002412
:10CF8000002500260027F0B4F92040B20047C04633
:10CF9000F0BDC04610B5031C002A01D0108800E087
:10CFA000094859188B420ED042BA1C7892B262409E
:10CFB000D0B2000942401003424092B2D0B24001C8
:10CFC00050400133EEE710BDFFFF000018DF70474F
:10CFD00070B5141C1D1C022902D004290AD019E0C6
:10CFE000104B1B78052B15D10F4B1B68002B11D054
:10CFF00004200CE00B4E3378022B0BD10B4B5B68FB
:10D000009847094B03201B683070002B02D0211C6D
:10D010002A1C9847002C04D00021201C0A1CFFF772
:10D02000D1F870BDD02C0020C82C0020F02C00209E
:10D0300000B5084B89B001221A7003AB05221A70A3
:10D04000079A039800920499059A069BFFF744FEFD
:10D0500009B000BDDC2C002000B589B003A8032373
:10D060000370074B1B884380064B079859689A68E2
:10D07000DB6800900398FFF72FFE002009B000BD89
:10D08000CE2C0020E02C002000B589B003AB01229B
:10D090001A70084A12885A80C0239B019B68039823
:10D0A0000093054B59689A68DB68FFF715FE00206E
:10D0B00009B000BDCE2C0020E02C002010B588B0B7
:10D0C00003AC201C00211422FFF772F80423237004
:10D0D00000230093043403980ECCFFF7FDFD08B045
:10D0E00010BD000030B589B003AC201C0021142213
:10D0F000FFF75EF8084B22691B8800256380074B09
:10D100002570DB680398E36000926168A268FFF70E
:10D11000E3FD281C09B030BDCE2C0020E02C0020FF
:10D1200008B50848084B02221860084B1A70084BD3
:10D13000196801F0E2F8002803D000210A1CFFF76B
:10D1400041F808BDD42C0020402D0020D02C002018
:10D15000482D002038B50E4B08201D78002D16D123
:10D160000C4C2068FFF700FD002803D0291C2A1C66
:10D17000FFF728F8F021206889030022FFF7A6FCBA
:10D18000041E03D000210A1CFFF71CF8201C38BD28
:10D19000DC2C00203C2D0020F0B585B0051C1E1CA9
:10D1A00001900323970868460C1C00930291039793
:10D1B000FFF70CFF00281ED080235B019C4212D891
:10D1C000012368460093019502940397FFF7FEFE42
:10D1D000002810D103236846009301950294039719
:10D1E000FFF7F4FE07E0A81BA11B321C331CFFF75E
:10D1F000D3FF0028E4D005B0F0BD0000F0B585B045
:10D2000000210C2201A8FEF7D3FF1A4B0025019341
:10D21000194B1A4F1D701A4B01A8391C1D8001F0C3
:10D2200047F8184E041EAC4201D0357020E0C023F0
:10D230009B01154D9B68281C211C144A7B60FFF73D
:10D240001DFC002803D0211C221CFEF7BBFFF0218F
:10D25000286889030022FFF739FC002803D0002149
:10D260000A1CFEF7AFFF0A4B002018600123337041
:10D2700005B0F0BDD1CF0300CC2C0020D42C002071
:10D28000CE2C0020D02C00203C2D002031D00300DB
:10D29000442D0020014B18607047C046C82C002068
:10D2A00070B5234B4268191C31CA31C112680A603B
:10D2B0001A78500702D50624910736D15E680320FC
:10D2C0000624064231D1996801422ED1DD6805421B
:10D2D0002BD18B19174E5B19F02033600C24800181
:10D2E000814222D8C02189018868F0218902091A67
:10D2F0008B421AD8104D114B2B60114B6B60D3072A
:10D3000001D5104B04E0940701D50F4B00E00F4B03
:10D31000AB600F4B08241B78012B06D1FFF71AFFD7
:10D32000041E02D130682B689847201C70BDC0468F
:10D33000E02C0020482D0020F02C002021D10300FB
:10D34000BDD0030089D0030059D00300E5D003000D
:10D35000D02C0020F8B5051E2FD0AA681020920707
:10D360002ED1184B1A78032A02D0052A02D026E0C3
:10D3700005221A70144C6B682268144F9E00B31873
:10D380003A68934204D901235B4223600C2017E0E2
:10D39000FFF7E0FE002813D10D4BA9681868321C76
:10D3A000236800F099FF00280AD12368F6183B682B
:10D3B00026609E4204D0092002E00E2000E00820F2
:10D3C000F8BDC046D02C0020442D0020482D002060
:10D3D000402D002070B50A4B08201C68002C0ED18F
:10D3E000084D2B78042B0AD1074E0848317800F0FD
:10D3F00047F9002802D105232B7000E0347070BD7E
:10D40000442D0020D02C0020CC2C0020FC2C00200F
:10D41000F8B5144B061C1A78032A02D0042A02D04D
:10D420001DE004221A70104B08201B68002B17D136
:10D43000FFF790FE071E13D173680C4C9D002378F4
:10D4400009205A19402A0BD809482A1CC018B1686B
:10D4500002F007FA2378381CED18257000E0082048
:10D46000F8BDC046D02C0020442D0020CC2C00203C
:10D47000FC2C002038B50E4C08202378052B16D143
:10D480000C4D0D4B2A681B68082093420FD10623D0
:10D490002370FFF75FFE002809D1084B29681B683D
:10D4A000586800F0EFF8002801D10723237038BD39
:10D4B000D02C0020482D0020442D0020402D00209D
:10D4C00008B5094B08201B78072B0CD1074B1868AF
:10D4D000FFF74AFB002803D000210A1CFEF772FE6A
:10D4E000034B9B68984708BDD02C00203C2D0020A2
:10D4F000F02C002000B589B003AB06221A70079A01
:10D50000039800920499059A069BFFF7E5FB09B082
:10D5100000BD0000F0B58DB005A8FFF7FFFC089C2A
:10D52000002C3CD0802252010B9DA318AB422AD97B
:10D530001C4BEF18C0239B019B687F08A34209D3B3
:10D5400080237A005B01D11850193B1CA21AFFF707
:10D5500023FE23E0802252010126BB1801A8019678
:10D56000029303930496FFF731FD002816D1802320
:10D570005B0101A80196029303930496FFF726FD31
:10D5800000280BD1DCE70123019380235B01A40871
:10D5900001A8029503930494FFF718FD041C201CB6
:10D5A0000DB0F0BD00F0FFFF00B58DB005A8FFF78E
:10D5B000B5FC0998002810D0089B002B03D1C0238C
:10D5C0009B019B6801E00B9A9B1880080022039046
:10D5D00001A801920293FFF7F9FC0DB000BD00B560
:10D5E0008DB005A8FFF79AFC0998002813D0089B76
:10D5F000002B03D1C0239B019B6801E00B9A9B1871
:10D60000032280080192F0229202049001A8029263
:10D610000393FFF7DBFC0DB000BD000030B58DB00B
:10D6200005A8FFF77BFC0898002824D0802252012F
:10D630000B9C8318A34211D9C0239B019B68834292
:10D6400018D30E4D63195B085A00802514196D011B
:10D650005119821A201CFFF79FFD0CE00323019350
:10D66000800880235B01049001A802930394FFF7D4
:10D67000ADFC00E00E200DB030BDC04600F0FFFF55
:10D6800000207047002070474278837812021B0404
:10D690001A4303781A43C378101C1B0618437047BB
:10D6A00073DF704774DF704776DF70477ADF70474B
:10D6B0007CDF70477FDF704782DF7047A7DF7047EE
:10D6C000A8DF7047A9DF7047AADF704767DF7047A0
:10D6D00000B50C2813D802F051F8071212121212DA
:10D6E00009121412120D0B0001200BE0032009E0B7
:10D6F000042007E00439481E8141481D02E006204D
:10D7000000E0022000BD08B500210A1CFEF75AFD0A
:10D7100008BD08B500210A1CFEF754FD08BD10B570
:10D72000041C081C0321FFF7D3FF0321021C201C4B
:10D7300001F000FE002803D000210A1CFEF742FD84
:10D7400010BD0000F0B5114B8FB09B7901AE02AC5B
:10D75000B3700F4B071C0021201C302200253380A2
:10D76000FEF726FD02232370201C0123291CA5702F
:10D77000E7702381E66001F0F1FAA84203D0291C8A
:10D780002A1CFEF71FFD0FB0F0BDC046602D002023
:10D790003015000038B50C1C151C03281DD00428BA
:10D7A0002AD1002908D0154B1888154B984223D050
:10D7B0001321FFF779FF19E0101C00F001FC00288D
:10D7C00003D0211C221CFEF7FDFC0E4B1B68AB4254
:10D7D00012D10D480321012206E0081C0121FFF7A8
:10D7E00077FF021C0848012101F0A4FD002803D0A6
:10D7F00000210A1CFEF7E6FC38BDC046602C002064
:10D80000FFFF0000502D0020602D0020F0B52A4BB6
:10D810008BB01D78002D4DD1284C291C201C1822BE
:10D82000FEF7C6FC264B1E78002E2BD0291C10229A
:10D8300002A8FEF7BDFC234802A91022224F02F0E5
:10D8400001F8061E08D10520FFF77CFF0122227097
:10D850006760267226821DE01A4B06AE009301AB6C
:10D8600001220693042000AB0893019732713273B2
:10D87000FFF768FF0223237228232570E6602382C6
:10D88000658208E00620FFF75DFF282326706660AA
:10D89000267223826682201CFFF702FF002803D035
:10D8A00000210A1CFEF78EFC002001F061F8024AFC
:10D8B000012313700BB0F0BD4D2D0020DC2D002096
:10D8C0004C2D00209D2D0020962D002070B5041CAD
:10D8D000AEB001F035FB8048211C01F05FFD2388CC
:10D8E000142B00D1B0E02DD8102B3AD008D8022B41
:10D8F00000D0EFE0794B00211888FFF7E7FEB1E098
:10D90000112B3BD0132B00D0E4E0754C02AE211C50
:10D9100006A8072201F0A5FFE11D301C102201F02E
:10D92000A0FF0EAD211C1831281C1C2201F099FF0C
:10D930006A4B852118886B4A08AB0C960B95FFF74C
:10D94000B9FE8FE0512B6BD005D8182B00D18CE09D
:10D95000192B45D0BEE0522B00D186E0552B2DD09F
:10D96000B8E0012001F004F8002001F015F8A288C9
:10D970005A4B1A805C4B00221A70ABE008AD802332
:10D980002B805A4B322201201A6001F005F8534CCB
:10D990000EA920882A1C0123FFF796FE002803D039
:10D9A00000210A1CFEF70EFC514B1B78002B01D105
:10D9B000FFF72CFF01235B4223808BE0A479002C2E
:10D9C00000D087E0022000F0D3FF444B13211888D9
:10D9D000FFF76AFE002800D17CE0211C221C74E0C5
:10D9E000A479002C76D1032000F0C2FF3E4B1C70BE
:10D9F0003E4B19680139196000290ED10EAC201C6C
:10DA00001422FEF7D5FB226905232370009204340B
:10DA10000E980ECCFFF760F95CE0FFF7F7FE59E0D7
:10DA2000A379002B56D0A27A043A022A52D80EA922
:10DA3000022B00D001230B70C1235B008B80274B8E
:10DA40001888FFF73DFE0DE0254AE189538D994284
:10DA500001D0002101E0111C1831A08807320023F9
:10DA6000FFF72AFE002835D02DE01C4B214D1C88E5
:10DA7000AC422DD0204B201C1B78002B1CD0184909
:10DA8000082234310123FFF71DFE021E1AD1111C9A
:10DA9000201C0223FFF716FE021E13D1201C0C21AE
:10DAA0002A1CFFF70BFE154B984213D0082811D003
:10DAB000134B984204D10DE0191C1A1CFFF702FE0B
:10DAC000021E07D0101C00210A1CFEF77BFB01E0A0
:10DAD0000822F7E72EB070BD602D0020602C0020DA
:10DAE000962D0020902D00204D2D0020642C00202C
:10DAF000F42D0020FFFF00004C2D0020023000001C
:10DB00000430000030B5424A00231370414A89B006
:10DB10004148137001F0CCFD002877D13F48FFF752
:10DB2000B9FB00F011FA041C002C6FD13C4800F046
:10DB30005FFD3C4B3C4D6A461C70281C1123137042
:10DB400001F098FE291C82B26846FFF7B1FD00285B
:10DB500003D0211C221CFEF735FB01AC201C002148
:10DB60000822FEF725FB0C23238018236380C8239B
:10DB700000255B00201CA580E380FFF797FDA842ED
:10DB800003D0291C2A1CFEF71DFB0021201C0C229F
:10DB9000FEF70EFB04232380244B25486360254BAE
:10DBA000211CA36001F030FA002803D000210A1CD8
:10DBB000FEF708FB201C00211C22FEF7F9FA1E4B81
:10DBC000002563608023DB01A360032323731B4BC9
:10DBD000201C0195E58125746561A36101F070F950
:10DBE000A84203D0291C2A1CFEF7ECFA144BE022B1
:10DBF00019780A400C210A4320218A431A7007220F
:10DC00005A7010229A70FFF701FE002009B030BD53
:10DC1000F42D00205C2D0020CDD8030095D7030003
:10DC2000962D00204C2D0020A4F80300B5DC030045
:10DC3000602D002007D70300CD0C000013D7030090
:10DC4000902D002010B5174B01221A70164B188822
:10DC5000164B984209D01321FFF726FD002816D055
:10DC600000210A1CFEF7AEFA11E0114B1A781C1CB9
:10DC7000002A0CD0FFF716FD002803D000210A1C53
:10DC8000FEF7A0FA002000F087FE0023237001F0C9
:10DC90004FF9002803D000210A1CFEF793FA002058
:10DCA00010BDC046F42D0020602C0020FFFF0000B6
:10DCB0004D2D0020F0B5051C087889B00C1C0928F2
:10DCC00000D92DE101F064FD2C00330046000A006C
:10DCD0001300230013011B014A002101FFF7CAFBB7
:10DCE0000421FFF7F5FC0421021C281C2FE0FFF79C
:10DCF000A9FF002803D000210A1CFEF763FAFFF7F2
:10DD0000DFFB002800D10BE1FFF7F4FB08E1FFF790
:10DD100099FF0028F8D000210A1CFEF753FAF3E718
:10DD2000804B01221A708B681A787F4B14E07D4B70
:10DD300002261E708B681B78012B00D0F0E0FFF7E5
:10DD400049FB311CFFF7C4FC021C281C311C01F0EC
:10DD5000F1FADFE0734B03221A70E1E0714B1E7899
:10DD6000022E2DD0032E51D0012E00D0D8E004AFCA
:10DD700000211022381CFEF71BFA6B4B0C221B787B
:10DD800001A800213B70FEF713FA032201920297CB
:10DD900023790C2BD9D1A468201CFFF775FC78607F
:10DDA000201DFFF771FCB860201C0830FFF76CFCE9
:10DDB000F86001A8FFF774FA002800D1B0E0C0E7CE
:10DDC0000B7903221A400DD00420801A0022A76884
:10DDD000591C00260132C9B2FE54824201D20B1CEA
:10DDE000F5E72171A168012304930691237904A822
:10DDF0009B080593FFF70CFB002800D190E002215F
:10DE0000FFF766FC0221021C281CA0E708793042BB
:10DE100003D0281C311C321C99E7444E0190311C60
:10DE200000F0A6F8011E0FD1A168019A306801F038
:10DE300018FD019800F0FEF8011E05D101A9301C63
:10DE400000F006F9011E01D0281C4DE0019A0423C0
:10DE5000049393080593336804A80693FFF77AFAAE
:10DE6000071E08D1324B22791F68D2191A60326816
:10DE7000304B1A6054E009282CD12D4B22791968B7
:10DE80001E1C52181A602C4A1278002A48D02B4BBC
:10DE90001A881F1C013A92B21A80002A40D1284CDD
:10DEA0002078431C0530C0B2237000F061FD237858
:10DEB000132B01D9002323703168281C01F002FACA
:10DEC000002803D000210A1CFEF77CF91D4B1B889B
:10DED0003B8025E0306800F073F8011E02D0281C5A
:10DEE000FFF71DFC281C391CFFF719FC18E0124B2A
:10DEF00001221A708B88134A1380104A03E00E4ADD
:10DF0000002313700F4A13800AE0094B281C19687C
:10DF100001F09EF9002803D000210A1CFEF752F9F7
:10DF200009B0F0BD5C2D0020952D0020582D00205B
:10DF3000D82D0020502D0020D42D0020562D00205B
:10DF4000542D0020D22D0020064B00201870064AC8
:10DF5000064B1A6008225A609860D86018615861B0
:10DF600098617047342F0020F82D0020182F0020D2
:10DF700030B500291FD0114B00245D680C600422CD
:10DF8000A54219D00C22202816D8DA6824200132A4
:10DF9000DA601A69013D50435D601D682818086009
:10DFA00098690121914001439961013207210A409A
:10DFB0001A61221C00E00E22101C30BD182F002018
:10DFC000F7B51B4B061C9C680420002C2FD05A6907
:10DFD0000721141B0C401868211C24254D434519AA
:10DFE000AE4206D1986901228A4042409A610020DF
:10DFF00005E00131072529409142EED110209A69B0
:10E000009E685F6801920097321C05E0002A0CD0E0
:10E010004D1C07242C40013A009FF5190127A74009
:10E020003C1C019FAD1A2742F0D09A605D60FEBD96
:10E03000182F0020054B07221969013911401A6871
:10E0400024234B43D318186200207047182F002058
:10E0500030B5002819D0002917D00D4B0422DC68F8
:10E06000002C13D09A68013C01329A605A69DC6036
:10E07000242454431D6801322C190460246A0C6066
:10E0800007210A405A61002200E00E22101C30BD18
:10E09000182F002082B00190019B002B12D0019B11
:10E0A0000948013B01930138C046C046C046C046FE
:10E0B000C046C046C046C046C046C046C046C04630
:10E0C000F1D1E9E702B07047E703000029DF7047AC
:10E0D00028DF704737B5CB680D78021C9C00081C00
:10E0E0004B6949680C30009102496458291CA047CB
:10E0F00037BDC0462C30002070B5194A182113785E
:10E10000151C594351180B1D0979186902290DD0A6
:10E11000042923D180235B05196989B201F042FBF0
:10E12000104B1B68C018FFF7D3FF12E00D4A596867
:10E130005E699B681468C0180B4BA4020A1B001987
:10E1400031199A4201D8920801E080225200FFF76B
:10E15000BDFF002803D10123AB7000E00F2070BD8C
:10E16000382F002038300020FF030000F8B5144C91
:10E17000061C657804200A2D20D020782D18EDB2D9
:10E18000092D01D90A3DEDB2182045436519281C17
:10E190000830AA61021C2E710832C0C9C0C2AB602F
:10E1A000069B4360A378002B01D0002003E0FFF71B
:10E1B000A3FF1128F9D0637801336370F8BDC0461E
:10E1C000382F002070B5264B9A781C1C002A45D0A9
:10E1D00000229A70022808D003283FD11A7818210B
:10E1E00051435B18191D0D2036E01D781821694335
:10E1F00059181C4B043118684E68013018608002B1
:10E20000B04218D31A606378013B63706B1CDBB2B9
:10E21000092B01D92B1C093B00202370FFF75AFF63
:10E2200018235D430221651900232B71AB6029611E
:10E230006B61AB61EB606378002B0FD0A378002B90
:10E240000CD1FFF759FF002808D0112806D02378F9
:10E25000182159436418211DFFF73CFF70BDC046CB
:10E26000382F0020383000200D490E4A002310B509
:10E2700013600B704B708B701A1C8B1800200224DB
:10E280001832187198601C6158619861D860F02A42
:10E29000F3D1054B1860054B1860586010BDC0469F
:10E2A000382F002038300020343000202C3000205F
:10E2B00010B5074C04222368022B07D05A1C0B60B0
:10E2C00022600168034A9B0099500022101C10BD77
:10E2D000343000202C30002073B5151CCA180A43B6
:10E2E000061C0C1C1020910706D100930220311C43
:10E2F000221C2B1CFFF73AFF76BD13B50022041C2D
:10E300000B1C0092211C0420FFF730FF16BD0000FB
:10E31000F8B5234F4379161CFA5C041C0D1C082029
:10E32000002A3BD1002902D11E4DDB00ED181E4B07
:10E330002068984201D1072030E00420E978205677
:10E3400000F0DEF86379194A69689B009950002E45
:10E35000F1D0174A17499E5022686E785058012311
:10E360001E409843304350502068A121C9004258B4
:10E37000AE78032082430640101C22683043505080
:10E380002268A221C90056582D780F2086430540E7
:10E39000301C2843505062790020BB54F8BDC04661
:10E3A00044300020ACF803000080004040300020E2
:10E3B0003C30002004050000036801221A60437904
:10E3C000014A0221D15470474430002002680123E1
:10E3D0001361427901498B547047C0464430002094
:10E3E00038B502791F231A40012393401A1C134B9E
:10E3F000041CDA674279124B00259200D550FFF7D2
:10E40000E5FF23688022920098580E4901409950F8
:10E410002168C22380229B005202CA5021688022B8
:10E420009202CA5021688022D202CA5021688022FA
:10E430001203CA506379044AD55438BD04E100E0A0
:10E440003C300020F0F0FFFF4430002030B5802544
:10E450006D028D400468002B01D0C12300E0C2236F
:10E460009B00E55051310368FF318900CA5030BD2F
:10E47000F8B506AC056826788024A4002F5902253B
:10E48000FF358D40AF4305682F5105682F593B4339
:10E490002B51331CFFF7DAFFF8BD0268A223DB0023
:10E4A000D3588020DBB28000D840484340097047F1
:10E4B00010B500240E4A201CA3189B0050301A6887
:10E4C000800080B2002A0FD0C1220A4992008958E8
:10E4D00080225202A240114206D000221A60064B4E
:10E4E0001968064B1B6898470134042CE2D110BD13
:10E4F0005024001000900040403000203C300020AC
:10E50000F0B58901002815DAC4B20F232340083B77
:10E51000174A9B089B009B1803221440FF25E2002A
:10E52000DE692C1C9440A6430D409540321C2A43C2
:10E53000DA6112E00F4B82089200D2180324C02344
:10E540009B00FF250440E400D6582F1CA740BE4383
:10E550000D40A540341C2C43D4501F2318400123E8
:10E560008340181CC022034B520098501860F0BD25
:10E5700000ED00E000E100E070B501230D1C002873
:10E5800021D10B68002B1DD0104C201CA34211D0B0
:10E59000E21A3B2A09D8221C611E3C328A4209D069
:10E5A0001E1AB65C013A5670F8E7201C191C3C2272
:10E5B00001F057F9201C3C210022FEF7EBFC002360
:10E5C000A08700E00E232B6070BDC046807F002036
:10E5D0000323064A5B429E4502D1EFF3098101E025
:10E5E000EFF30881886902380078104779E5030065
:10E5F00070B50E23061E11D0094C3C21201C0022B0
:10E60000FEF7C8FCA58F0B23854207D1301C211CC7
:10E610003C22013501F025F9A5870023181C70BDA7
:10E62000807F002060DF704713DF704718DF70477E
:10E6300010B586B002A800211022FDF7B9FD022313
:10E6400002A80293FFF7F2FF002803D000210A1C62
:10E65000FDF7B8FDF0208002FFF7E6FF002803D0A9
:10E6600000210A1CFDF7AEFD0D2016494822164B6D
:10E6700000F0FAFF002803D000210A1CFDF7A2FDDC
:10E68000082268460021FDF793FD6A4613780122AF
:10E690000024134368466A4601941370FFF7C2FFD3
:10E6A000A04203D0211C221CFDF78CFD074801F07D
:10E6B00009F8002803D000210A1CFDF783FD06B0ED
:10E6C00010BDC046D833002015F70300D1E6030083
:10E6D00008B5FFF777FD08BD08B508201421054AE5
:10E6E000FDF780FD002803D000210A1CFDF76AFD1C
:10E6F00008BDC0468832002008B5031C0A1C024829
:10E70000191CFDF75FFD08BDEFBEADDEF7B5434B4D
:10E710008022D205D158424C424DB12907D1B221B5
:10E72000D150BFF34F8FE560BFF34F8FFEE7D65850
:10E73000B23E71424E41F6B2002E01D00021D150BE
:10E74000394B1A68F0239B029A4204D00020011C26
:10E75000021CFDF737FD80235B051A698023DB006F
:10E760009A4204D00020011C021CFDF72BFD2F4B08
:10E7700000200093032105222D4BFEF707F9002806
:10E7800003D000210A1CFDF71DFD00F0B3F8FEF7D1
:10E7900027FBFEF773FB002814D0FEF77FFB002851
:10E7A00003D000210A1CFDF70DFDFFF741FFFFF725
:10E7B00093FFFEF79DFB002808D000210A1CFDF7FF
:10E7C00001FD03E0FFF734FFFFF786FFC027BF011D
:10E7D000002E08D0FEF71EFB002809D000210A1CDD
:10E7E000FDF7F0FC04E0B868FEF756FA0028F1D017
:10E7F000B868FEF751FA00280AD0FEF73FFB002860
:10E8000006D100F0ADF8C0239B019868FEF70EFB1F
:10E81000BFF34F8FE560BFF34F8FFEE71C0500008D
:10E8200000ED00E00400FA0514100010EDCB030029
:10E8300048300020A02330B55B0098424ED1284CD0
:10E84000A0202278274BC005012A02D11978062979
:10E8500002D01978092912D1CE21FF315518AD0007
:10E86000002141511D78C535FF35AD004151022AC7
:10E8700001D0511CC9B2002221701A7007E0E225B4
:10E880006D004A19920000250131855019702078D9
:10E89000197809234343144ACB18DBB2D35C012215
:10E8A000141C9C40231C114C24681C4216D0051CCF
:10E8B000CE30A023FF30DB0503248000C450081DA8
:10E8C000C531FF318900CC50111C8140081C08491A
:10E8D0000D355850A121AA40A1405A5030BDC04624
:10E8E0002034002021340020BCF803002434002010
:10E8F0000C05000037B51649A0220023D20553505D
:10E90000E721C9005350134953500423E02040002D
:10E91000191889000024013354500D2BF6D10E4DE7
:10E92000211C281C0D4AFFF7F3FCA04203D0211C38
:10E93000221CFDF747FC281C1421FFF7AEFD012324
:10E94000021C0093281C0021FFF792FD37BDC04632
:10E95000340700003C070000B4F8030035E803006A
:10E9600008B50248FFF73CFD08BDC046B4F80300F7
:10E9700038B5074C051C2368002B02D10548FFF76A
:10E980001BFD0123AB401D1C23681D43256038BDC2
:10E9900024340020B4F8030008B5064A012383405C
:10E9A000181C13688343136002D10348FFF70EFD60
:10E9B00008BDC04624340020B4F8030072DF70475D
:10E9C00079DF70477DDF704765DF7047F0B587B04E
:10E9D0000C9F061C3878002403910292009301904A
:10E9E000251C33889D4238DA7268A900511805A8A1
:10E9F000042200F036FF694605A813310022FFF714
:10EA0000E3FF002832D16846C37C02998B4220D1B3
:10EA1000624262413B78520059188A181F2A1ADC58
:10EA2000002C06D19A1C3A7001330398009ADBB28D
:10EA3000D05400996C463A7813348A1805A8211CE2
:10EA4000FFF7C2FF002811D13A7823780124D318A8
:10EA50003B700135C5E70C2008E00020844205D05A
:10EA60003B78019A013B00999B1A8B5407B0F0BD8B
:10EA7000F7B5089E171C00960222051C1C1CFFF708
:10EA8000A5FF002806D10096281C391C1022231C43
:10EA9000FFF79CFFFEBD0000F0B500231370037864
:10EAA00087B0061C0D1C141C002B03D1B378002B5F
:10EAB00047D027E043780C201D2B00DD46E16F4650
:10EAC00016371D23881C391C3B80FFF77BFF00286D
:10EAD00000D03BE13378022B03D13B8809221D2B68
:10EAE00007D97378002B02D008221D2B01D93B884F
:10EAF0000822DBB2591C29706A70227802329B18F6
:10EB00002370D3E723780C201B2B00DD1EE16F461A
:10EB10001637381CFFF754FF002800D016E1237881
:10EB200039885A1C22700322EA5423785A1C227016
:10EB30001922EA542378EA1811700233090A517035
:10EB40002370F378002B0ED023785A1C22700222F7
:10EB5000EA5423785A1C22700122EA5423789A1826
:10EB60002270F278EA547368002B12D01A78237856
:10EB70000C201C2B00DDE9E0591C21700221E95416
:10EB80002378591C21700A21E9542378591C2170DB
:10EB9000EA543389002B03D1338A002B16D00AE0C4
:10EBA000301C00940830022106222B1CFFF760FF66
:10EBB0000028F1D0CAE0301C009410300321072255
:10EBC0002B1CFFF755FF002800D0BFE0338B002B34
:10EBD0000AD0301C00941830142115222B1CFFF78A
:10EBE00047FF002800D0B1E0336A002B42D02178E3
:10EBF0000C200A1C063202911F2A00D9A6E01988AF
:10EC00000720052900D8A1E0514A8F18514ABFB208
:10EC1000974200D89AE05A88052A00D896E04C4FCF
:10EC2000BF18BFB2BC464B4FBC4500D88EE04A4F20
:10EC3000B94204D0BA4202D0914200D986E0029A89
:10EC400002990132227005226A542278511C2170E7
:10EC50001221A95422781888A9180870000A48704F
:10EC6000901CC0B2207059882B1819700432090A00
:10EC700059702270776A002F28D03A792378911C36
:10EC8000981CC9B241180C201F295FDC591C0332A3
:10EC90002170EA5423785A1C2270FF22EA54237808
:10ECA0003988EA1802331170DBB2090A51702370F7
:10ECB000BA88002A0AD0B9680720002946D0E81887
:10ECC00000F0CFFDBA882378D3182370371C2C3777
:10ECD00003973B780020834238D0B16A814201D04B
:10ECE000029021E0072031E0029A0C275743B36AD3
:10ECF000DF193A7923780332591C2170EA542378BA
:10ED00005A1C22701622EA5420783A882B180230B6
:10ED10001A70C0B2120A5A702070BA88002A09D13B
:10ED2000029B0133DBB20293039F3B78029FBB42FD
:10ED3000DAD80AE0B9680029D4D0281800F091FD8B
:10ED4000BA882378D3182370EAE7002007B0F0BD13
:10ED50007FF3FFFF7DF30000FFFF0000F0B593B0ED
:10ED60006D466E460023063507360C1C2B7033703B
:10ED7000984204D0C3785A070FD407201DE0071C1F
:10ED8000002C03D0E378002BF7D10EE0221C297869
:10ED90003378381CFFF712FE0FE002A92A1CFFF798
:10EDA0007BFE02AF0028EBD007E0321C201C0AA932
:10EDB000FFF772FE0AAA0028E9D013B0F0BD75DF94
:10EDC000704776DF70477ADF70477BDF704700005F
:10EDD00037B5174B1888174B984227D0164B174D4D
:10EDE0001A782C1C0132D2B21A70297B914208D3B6
:10EDF0001349FFF7E4FF002818D0AB69002B14D1AA
:10EE000014E000221A702B7C934208D03B21FFF7BC
:10EE1000D8FF002803D0AB69002B00D09847636966
:10EE2000002B03D001A800220270984737BDC046CE
:10EE300054340020FFFF000032340020343400201E
:10EE40005634002037B5184B184A5B881188184C87
:10EE5000184D99420CD852889A4209D36369002B05
:10EE600003D001A801220270984700232B7037BD00
:10EE70002B78002B05D06369002BF6D001A8002267
:10EE8000F1E70D4B1B78002B01D1616800E0A16810
:10EE90000A4B00221868FDF719FE0028E5D0A36987
:10EEA000002BE1D1E1E7C0462A340020563400208F
:10EEB0003434002028340020323400205034002024
:10EEC00070B51449021C0B1C70CA70C332CA32C31D
:10EED0001268114C1A600168104B00221A70201C35
:10EEE000914213D0082200F0BCFC201CFFF76BFFFE
:10EEF00000280ED10A4B012252421A80094B0021F0
:10EF0000094A0A481970FDF7B9FD02E0FFF75DFFF5
:10EF1000EEE770BD34340020563400202834002041
:10EF20005434002032340020D1ED0300503400204E
:10EF300008B5024B1868FDF717FE08BD50340020D5
:10EF400010B50388112B19D002D8102B05D043E03F
:10EF5000122B3AD0502B21D03EE082881F4B011C4F
:10EF60001A80163108221E4800F07BFC1D4B00223F
:10EF70001A701D4BDB8993422ED12BE0174B0122D7
:10EF800052421A80174B00221A70184B1868FDF76E
:10EF9000EBFD002820D0144B9B6912E0124CC18875
:10EFA000E289914218D1C38B022B15D10130C37F66
:10EFB000DA070FD40D4B1868FDF7D6FD00280BD0EB
:10EFC000A369002B08D0984706E0811D0822044859
:10EFD00000F047FCFFF736FF10BDC0465434002058
:10EFE0002A340020323400203434002050340020F1
:10EFF000A0DF7047A2DF7047A5DF7047A6DF70472C
:10F00000A8DF704763DF7047F0B599B002900391B5
:10F01000002800D10BE1002900D108E14A680E2444
:10F02000002A00D104E101235B42038082491022BF
:10F0300008A800F016FC814B694606AD08A81A31F5
:10F040002B80FFF7DFFF041E00D0F1E0029A0120C1
:10F050000432291CFFF7CCFF041E00D0E8E0AB7897
:10F06000029A11AD9371211C1C22281CFDF7A0F8F7
:10F070002B7804221343029A6C60EC602C616C6163
:10F08000AC612B7093796A4693776D4B05AF938390
:10F09000211C0322381CFDF78BF800233B70012252
:10F0A000102313437B70BB78062293430222134341
:10F0B0000822934310220CAE934301221343211CD8
:10F0C0001422301CBB70FDF773F807AB0C931422AD
:10F0D000029B34817481B281346177609888291CE5
:10F0E000321C0833FFF786FF041E00D0A0E0211C6D
:10F0F0001C22281CFDF75CF82B78082213431022F1
:10F100001343029A6C60EC602C616C61AC612B70F3
:10F1100093796A4693774B4B211C9383381C0322C7
:10F12000FDF746F800233B707B780F2293430122C2
:10F1300013430F221340102213437B70BB78062227
:10F1400093430222134308229343102213430122C4
:10F150001343211C1422301CBB70FDF729F807ABA8
:10F160000C931723B381029A029B3481748134611A
:10F1700077609088291C321C1033FFF73BFF041E78
:10F1800056D1211C1C22281CFDF712F82B780222D4
:10F190001343029A6C60EC602C616C61AC612B7063
:10F1A00093796A469377284B211C9383381C03225A
:10F1B000FCF7FEFF3B780F229343012213430F22FB
:10F1C0001340102213433B7000237B70BB78062250
:10F1D00093430222134308229343102293430122B4
:10F1E0001343211C1422301CBB70FCF7E1FF0222E8
:10F1F0003281B28107AB039A3360029B7481326122
:10F2000077609888291C321C2033FFF7F3FE041E18
:10F210000ED1039A029B52689A62039A9368002B5C
:10F2200001D0029AD362094B01221A7000E00E2429
:10F23000201C19B0F0BDC046D7F8030030150000FF
:10F240003215000031150000341500005E34002036
:10F25000F0B5061C87B000282BD00288164B08207A
:10F260009A4227D0154B1B78002B23D0144C080A48
:10F27000E1702071080C090E02AD0723A1716946E7
:10F28000102201276071CB80281C0021637022703E
:10F29000A770FCF78DFF338A30882B800023AB806A
:10F2A00006236B44291CAF70AB60EC60FFF7A6FE31
:10F2B00000E00E2007B0F0BDFFFF00005E3400202C
:10F2C0005F340020F0B5061C87B0002829D00288E2
:10F2D000154B08209A4225D0144B1B78002B21D0C7
:10F2E000134D11232B700B0A02AC6970AB700B0C21
:10F2F000090EEB7029716F460523201C0021102296
:10F30000FB80FCF755FF338A063723800123A37067
:10F3100030880023211CA380A760E560FFF76EFE04
:10F3200000E00E2007B0F0BDFFFF00005E340020BB
:10F330005F340020F0B5051C87B0002824D0048875
:10F34000134B08209C4220D0124B1B78002B1CD062
:10F35000114E02AC102371706F460321F980B27018
:10F36000201C1A1C00213370FCF722FF2B8A063761
:10F3700023800123A37028880023211CA380A76079
:10F38000E660FFF73BFE00E00E2007B0F0BDC04690
:10F39000FFFF00005E3400205F340020F0B5041C45
:10F3A00089B00E1C002800D1AFE0002900D1ACE0EC
:10F3B000826A002A00D1A8E00B88112B18D004D84B
:10F3C000102B00D0A1E08B8814E0502B02D0512BE1
:10F3D00012D09AE0C9880389994200D095E004A927
:10F3E00008230B70F38B20360B718E6090478CE0F6
:10F3F00001235B42238088E08A79022A00D084E0DE
:10F400000A89038A9A4200D07FE08B7A043B022B60
:10F4100000D87AE001AD022204AF3A700021082240
:10F42000281CFCF7C5FE022300AA2B806A6000237B
:10F430002088A18A2A1C6B80FFF7DEFD002804D0FB
:10F44000E36A002B05D0984703E06A461378DA0791
:10F4500007D4FE23FF332088391CBB80FFF7D0FD83
:10F460004DE0B880391C2088FFF7CAFD002846D13E
:10F47000F31CD97F481E07283DD800F07FF9040E01
:10F480001B1D1F213A2300232B70338C012B02D824
:10F49000201C012108E0012308E001232B70328C9D
:10F4A0009A4203D8201C0221062226E023362B7123
:10F4B000AE6019E0022316E0032314E0042312E0F7
:10F4C000052310E0338C022B02D8201C082113E006
:10F4D000731DDB7F0436F27F1B021343AB8001D127
:10F4E000072300E006232B70A36A201C291C9847E1
:10F4F0000BE00923F7E7201C0322FFF71BFF00287E
:10F5000003D0E36A002B00D0984709B0F0BD00009B
:10F5100010B51C4B1A78181C012A12D11A4B1B6803
:10F5200019070ED1194BF0221B68E024191C114059
:10F53000234204D1164B1B68134202D118E0302934
:10F54000F8D00378012B1BD10F4A1268110717D18D
:10F550000E4A1168F0221140402911D10C49096866
:10F5600011420DD1C1228021D200C9058B5007E084
:10F570000849094A11608021084A09021160E0E740
:10F5800010BDC046E00F00F0E40F00F0E80F00F0FF
:10F59000EC0F00F0DFFF07C004050040186C0040CE
:10F5A0002EDF704751DF704710DF704761DF704713
:10F5B00008B5081C111CFFF79FF808BDF0B5254BD6
:10F5C00085B01B78002B42D0234E244F3268544222
:10F5D00054413A68E4B255425541EDB2002C34D161
:10F5E00003A8FFF7DFFF05280AD0002804D0211C5C
:10F5F000221CFCF7E7FD04E003983368984700E01D
:10F600000124002D1ED1164B03A91B880B80154B1E
:10F610001B68181C0193FFF7C9FF051E052D0BD0B1
:10F62000002805D000210A1CFCF7CCFD002504E0D1
:10F6300001983A68904700E00125002CCED0002DBB
:10F64000CCD004E0002C02D1C8E7002DDBD005B0FF
:10F65000F0BDC046663400207034002074340020B1
:10F66000683400206C34002038B5041C07200029C1
:10F6700013D08D0711D1094801600949201C0A8067
:10F68000084A09491360FFF78FFF002805D1074B8F
:10F69000012216201A70FFF783FF38BD6C3400205A
:10F6A0006834002078340020B1F50300663400206F
:10F6B000002803D0024B1860002000E00E207047A5
:10F6C00074340020002803D0024B1860002000E0B2
:10F6D0000E2070477034002008B5074B1B68002BC4
:10F6E00007D09847002806D000210A1CFCF76AFDC5
:10F6F00001E0FFF763FF08BD7834002008B500295A
:10F7000004D00020011C021CFCF75CFDFFF756FF33
:10F7100008BD000008B50020011C024AFCF788FD66
:10F7200008BDC046FDF6030003210A4802680A43EB
:10F730000260094802680A4302600849084A094B06
:10F740009B1A03DD043BC858D050FBDC06488047B9
:10F75000064800472405004054050040F0F8030027
:10F76000002C0020682C002011F50300C1C003000C
:10F77000FEE7FEE7FEE7FEE7FEE7FEE702B47146BE
:10F7800049084900095C49008E4402BC7047C046E4
:10F7900003B47146490840004900095A49008E44A3
:10F7A00003BC7047002934D00123002210B48842E2
:10F7B0002CD301242407A14204D2814202D20901A0
:10F7C0001B01F8E7E400A14204D2814202D24900C1
:10F7D0005B00F8E7884201D3401A1A434C08A04264
:10F7E00002D3001B5C0822438C08A04202D3001BFA
:10F7F0009C082243CC08A04202D3001BDC08224311
:10F80000002803D01B0901D00909E3E7101C10BC34
:10F810007047002801D00020C04307B4024802A16D
:10F820004018029003BDC046190000000029F0D026
:10F8300003B5FFF7B9FF0EBC4243891A1847C0460B
:10F840007047C04630B50023934208D0C55C0133F1
:10F85000CC18013C2478A542F6D0281B00E00020FB
:10F8600030BD10B50023934203D0CC5CC4540133A7
:10F87000F9E710BD0023C25C0133002AFBD1581EFA
:10F8800070470000F8B5C046F8BC08BC9E467047FB
:10F89000F8B5C046F8BC08BC9E467047430000005F
:10F8A000002C00204466755461726700000000035C
:10F8B0000000000000900040090000000002041356
:10F8C0001211100F0B0E0A0C010317150000161869
:10F8D0001405060708090DA8A9DF2219FA62A00A73
:08F8E000471D2500005DE90051
:08F8E800D8C7FF7F01000000FA
:10F8F0000000000000000000000000000000000008
:10F9000000000000000000000000000000000000F7
:10F910009CF8030000000000000000000000000050
:10F9200000000000000000000000000000000000D7
:10F9300000000000000000000000000000000000C7
:10F9400000000000000000000000000000000000B7
:08F95000FFFF0000320000007F
:10FC000000000000000000000000000000000000F4
:10FC100000000000000000000000000000000000E4
:10FC200000000000000000000000000000000000D4
:10FC300000000000000000000000000000000000C4
:020000020000FC
:020000041000EA
:0410140000C0030015
:040000033000F729A9
:00000001FF
